:100000000C9471000C9499000C9499000C94990034
:100010000C9499000C9499000C9499000C949900FC
:100020000C9499000C9499000C9499000C949900EC
:100030000C9499000C9499000C9499000C949900DC
:100040000C94BE0C0C9499000C9448090C94220951
:100050000C9499000C9499000C9499000C949900BC
:100060000C9499000C94990005A84CCDB2D44EB9CB
:100070003836A9020C50B9918688083CA6AAAA2A4B
:10008000BE000000803F00000000250028002B007B
:1000900000000000240027002A00000000002300C8
:1000A00026002900040404040404040402020202D9
:1000B000020203030303030301020408102040802B
:1000C00001020408102001020408102000000008AA
:1000D000000201000003040700000000000000000F
:1000E0000D1211241FBECFEFD8E0DEBFCDBF11E04F
:1000F000A0E0B1E0ECE3FCE202C005900D92AA386A
:10010000B107D9F727E0AAE8B1E001C01D92A438F1
:10011000B207E1F710E0C1E7D0E004C02197FE018B
:100120000E941116C037D107C9F70E94080D0C9420
:100130001C160C94000080E991E00895579A0895E8
:1001400080E090E00895FC01858596850895CF9321
:10015000DF9300D000D000D0CDB7DEB7AB011C825A
:100160001D821E82DC01ED91FC910190F081E02D59
:1001700019821A821B829E012F5F3F4FBE016C5F66
:100180007F4F099526960FB6F894DEBF0FBECDBF00
:10019000DF91CF9108954F925F926F927F928F92ED
:1001A000AF92BF92CF92DF92EF92FF921F93CF93C5
:1001B000DF933C01EB010E94370BF3012785308967
:1001C000621B730B6A307105B0F3F894E881F98112
:1001D0007BB170688BB18F778BB9CA849F812C2DCE
:1001E000291B922F2F83BF844A805B80FD84EC847F
:1001F000DE84F394E394D3943E814885A9848B8470
:100200001181D20120E0522F622F61811127889441
:100210006111690F08F46FEF91958894F0FC160F47
:1002200017958894F1FC160F17958894F2FC160F19
:1002300017958894F3FC160F17958894F4FC160F05
:1002400017958894F5FC160F17958894F6FC160FF1
:1002500017958894F7FC160F17958894262FF110A0
:10026000212F9C0D122F002C7BB900C000C017FF5E
:100270008BB960812227889400C0002C8BB9611152
:10028000630F00C0002C7BB900C000C016FF8BB903
:1002900008F46FEF3195889400C0002C8BB9E0FC16
:1002A000260F00C0002C7BB900C000C015FF8BB921
:1002B00027958894E1FC260F00C0002C8BB9279568
:1002C000889400C0002C7BB900C000C014FF8BB91B
:1002D000E2FC260F2795889400C0002C8BB9E3FC24
:1002E000260F00C0002C7BB900C000C013FF8BB9E3
:1002F00027958894E4FC260F00C0002C8BB9279525
:10030000889400C0002C7BB900C000C012FF8BB9DC
:10031000E5FC260F2795889400C0002C8BB9E6FCDD
:10032000260F00C0002C7BB900C000C011FF8BB9A4
:1003300027958894E7FC260F00C0002C8BB92795E1
:10034000889400C0002C7BB900C000C010FF8BB99E
:10035000162FE110122F3A0D00C0002C8BB900C0EF
:1003600000C0002C7BB900C000C017FF8BB96281B0
:100370002227889400C0002C8BB96111640F00C043
:10038000002C7BB900C000C016FF8BB908F46FEFDA
:10039000EB0DF11D00C0002C8BB9D0FC260F00C066
:1003A000002C7BB900C000C015FF8BB9279588943D
:1003B000D1FC260F00C0002C8BB92795889400C073
:1003C000002C7BB900C000C014FF8BB9D2FC260FF3
:1003D0002795889400C0002C8BB9D3FC260F00C051
:1003E000002C7BB900C000C013FF8BB927958894FF
:1003F000D4FC260F00C0002C8BB92795889400C030
:10040000002C7BB900C000C012FF8BB9D5FC260FB1
:100410002795889400C0002C8BB9D6FC260F00C00D
:10042000002C7BB900C000C011FF8BB927958894C0
:10043000D7FC260F00C0002C8BB92795889400C0EC
:10044000002C7BB900C000C010FF8BB9162FD11053
:10045000122F419500C0002C8BB9480D00C000C080
:100460007BB900C000C017FF8BB961812227889437
:1004700000C0002C8BB96111690F00C0002C7BB942
:1004800000C000C016FF8BB908F46FEF91958894F7
:1004900000C0002C8BB9F0FC260F00C0002C7BB9EB
:1004A00000C000C015FF8BB927958894F1FC260F7A
:1004B00000C0002C8BB92795889400C0002C7BB914
:1004C00000C000C014FF8BB9F2FC260F279588945A
:1004D00000C0002C8BB9F3FC260F00C0002C7BB9A8
:1004E00000C000C013FF8BB927958894F4FC260F39
:1004F00000C0002C8BB92795889400C0002C7BB9D4
:1005000000C000C012FF8BB9F5FC260F2795889418
:1005100000C0002C8BB9F6FC260F00C0002C7BB964
:1005200000C000C011FF8BB927958894F7FC260FF7
:1005300000C0002C8BB92795889400C0002C7BB993
:1005400000C000C010FF8BB9162FF110122F9C0DA8
:1005500000C0002C8BB9119709F086CE20EE31E057
:10056000D2010E94F615DC01CB01F4E0B695A79507
:1005700097958795FA95D1F720E030E0A9016AE9CF
:10058000469E040C411D569E400D511D1124450DE3
:10059000511D840F951FA11DB11D893E43E0940795
:1005A000A105B10508F434C0885E9340A109B109E2
:1005B00042E0B695A795979587954A95D1F747E07C
:1005C000849F080E211D949F200D311D1124290F99
:1005D000311D6091360470E0860F971F820F931FC4
:1005E0004091C5065091C6066091C7067091C80635
:1005F000292F3327420F531F611D711D4093C506DC
:100600005093C6066093C7067093C806809336045D
:1006100078940E94370BF301708B6787DF91CF913D
:100620001F91FF90EF90DF90CF90BF90AF908F9091
:100630007F906F905F904F9008950F931F93CF938B
:10064000DF93CDB7DEB762970FB6F894DEBF0FBE6B
:10065000CDBF8C01F901DC011C968C917A836983F2
:100660005C834B835E834D8390819D8791819E87C0
:1006700092819F87813029F4CE0101960E947A09E8
:1006800006C01C861B861A86198618861F8283E080
:10069000888B1A8A198AD801ED91FC910484F5851A
:1006A000E02DBE016F5F7F4FC801099562960FB6BE
:1006B000F894DEBF0FBECDBFDF91CF911F910F9198
:1006C00008950F931F93CF93DF93CDB7DEB7629753
:1006D0000FB6F894DEBF0FBECDBF8C01F901DC016F
:1006E0001C968C917A8369835C834B835E834D83F4
:1006F00090819D8791819E8792819F87813029F487
:10070000CE0101960E947A0906C01C861B861A86B5
:10071000198618861F82188A1A8A198AD801ED91BB
:10072000FC910484F585E02DBE016F5F7F4FC80109
:10073000099562960FB6F894DEBF0FBECDBFDF916C
:10074000CF911F910F910895DF92EF92FF920F9337
:100750001F93CF93DF93FC017B01DA014C91CFEF24
:10076000D0E08E01021B11091196DC9011971296B0
:100770003C91DB0112965C91509FC001519F900DFE
:100780001124329F800D911D1124BE010E94E2159B
:10079000362FD70111965C91509FC001519F900D4B
:1007A0001124D29E800D911D1124BE010E94E215DC
:1007B000D62ED7015C91509FC001519F900D1124FE
:1007C000429F800D911D1124BE010E94E21560839D
:1007D000D1823283CF01DF91CF911F910F91FF9092
:1007E000EF90DF900895AF92BF92CF92DF92EF9299
:1007F000FF920F931F93CF93DF93CDB7DEB7299767
:100800000FB6F894DEBF0FBECDBF6C01362F613836
:1008100008F03F77032F10E0C8018A549C4F5C0119
:10082000DC018C917801EE0CFF1C882309F468C070
:10083000832F6AE20E94D615BFEF9B9FC00111244F
:100840006AE270E00E94E215262F3A3290F480911D
:10085000B0038C838091B1038D838091B2038E832A
:100860008091AD0389838091AE038A838091AF0329
:1008700027C0343590F48091B3038C838091B40306
:100880008D838091B5038E838091B003898380919D
:10089000B1038A838091B20313C04091AD0390915C
:1008A000AE038091AF033E3708F54C839D838E8362
:1008B0008091B30389838091B4038A838091B503C7
:1008C0008B83AE014C5F5F4FBE016F5F7F4FCE01E8
:1008D00007960E94A403F701E00FF11FE35DFD4FAF
:1008E0008F81808388858183898507C0F701E00F28
:1008F000F11FE35DFD4F408391838283F5011082F8
:100900000E0D1F1DF801E35DFD4F8081D6018C9314
:10091000818111968C931197828112968C93C601D6
:1009200029960FB6F894DEBF0FBECDBFDF91CF91F1
:100930001F910F91FF90EF90DF90CF90BF90AF90FD
:1009400008955F926F927F928F929F92AF92BF9223
:10095000CF92DF92EF92FF920F931F93CF93DF938B
:1009600000D000D0CDB7DEB78C016B01E42E0F3F75
:100970008FEF180781F4EFE8F1E09FEF80E18E0F31
:1009800091938E13FDCF10928E0110928D011092D3
:100990008C0110928B0180E10E94200B2EE030E050
:1009A000DC010E94F6152FEF33E040E050E00E949A
:1009B000491261E0620FC6012C830E94040A8091F3
:1009C0008D0190918E01A801481B590B8FE02C815D
:1009D000821B90E084179507A4F410938E01009376
:1009E0008D0180918A01E82FF0E0E157FE4FE11080
:1009F00002C0108202C093E090838F5F8F7080935B
:100A00008A018824839480918B0190918C0108172E
:100A1000190714F4812C06C0085F1F4F10938C0136
:100A200000938B018FE00E94200B2FE030E0DC016F
:100A30000E94F6152FEF33E040E050E00E9449128B
:100A4000622E8FE8A82E81E0B82E8501712C30E04F
:100A500055245A94802F8A19F801F080FFEFFF1671
:100A600079F160913904670D80FD03C09F2C930ECE
:100A700004C083E0830F982E9F18CE0101963C831B
:100A80000E94F303F60183E0989EE00DF11D11240E
:100A9000898180838A8181838B8182833C818820C4
:100AA00079F0E11009C091E09F0DF801943014F441
:100AB000908306C0508204C0F801808181508083F9
:100AC0000F5F1F4F3C5F760C303421F60F900F9074
:100AD0000F900F90DF91CF911F910F91FF90EF90AA
:100AE000DF90CF90BF90AF909F908F907F906F904E
:100AF0005F900895CF93DF9300D01F92CDB7DEB7FC
:100B000040EF60913804CE0101960E94370A898136
:100B10008093AD038A818093AE038B818093AF0372
:100B20006091370480913804680F40EFCE01019640
:100B30000E94370A89818093B0038A818093B10330
:100B40008B818093B2036091380480913704681BD5
:100B500040EFCE0101960E94370A89818093B3034A
:100B60008A818093B4038B818093B503E6EBF3E035
:100B700081E094E0E633F90711F08193FACF0F900A
:100B80000F900F90DF91CF91089540910001509107
:100B9000010125E038E0429FC001439F900D529F24
:100BA000900D1124875E994C909301018093000170
:100BB000890F08950F931F93CF93DF938C01C62F56
:100BC000D0E00E94C505FE01EE0FFF1FE55FFD4F5F
:100BD00029E1829FC0011124892F990F990B080FD9
:100BE000191F11830083FE01E552FE4F8FEF8083B2
:100BF000C550DE4F1882DF91CF911F910F9108955C
:100C00002F923F924F925F926F927F928F929F921C
:100C1000AF92BF92CF92DF92EF92FF920F931F930A
:100C2000CF93DF93CDB7DEB729970FB6F894DEBF29
:100C30000FBECDBF7C014B01242E019669F410E05C
:100C4000612F8FEF9FEF0E94DA051F5F1031C1F710
:100C500010922C0210922B026CE0C4010E94040A34
:100C60008FE00E94200B2FEF30E0DC010E94F61590
:100C700044244A94E3E05E2E612C712CA30192017E
:100C80000E944912122F2D8380E10E94200B29E03F
:100C900030E0DC010E94F615A30192010E94491286
:100CA000295F2E8316951F8321E02C8380912B02D0
:100CB00090912C02E816F90614F41C8206C0C701B4
:100CC000059690932C0280932B020BEF11E03BEEE4
:100CD000A32E31E0B32E4BEDC42E41E0D42E5BE0C9
:100CE000452E52E0552E312C65E0662E68E0762EBA
:100CF0002E81321608F08AC0F201808191818E1512
:100D00009F050CF049C0019609F446C08FEF9FEF94
:100D1000F20191838083211003C0F801108203C087
:100D200023E0F80120830E94C505ED818E9FC0015C
:100D30001124892F2F81821BF501808320910001CE
:100D400030910101269DC001279D900D369D900D8B
:100D50001124875E994C869D9001879D300D969D4C
:100D6000300D1124275E394C269DC001279D900D22
:100D7000369D900D1124875E994C909301018093CC
:100D80000001A0E0B0E02CE0B695A7959795879577
:100D90002A95D1F7F6018083F60190819F3FF1F10A
:100DA000F501608180913904680FF8012081392FA5
:100DB000330F330F90FD02C0320F03C083E0821B5C
:100DC000380FCE010196288739870E94F3033985B1
:100DD000F40183E0389FE00DF11D112489818083A7
:100DE0008A8181838B81828328859C819923B1F0BC
:100DF000211006C02F5FF8012083243078F00AC04C
:100E0000222341F02150F801208308C0F60180819F
:100E10008F3F21F0632DC7010E94DA0533940F5FE5
:100E20001F4FFFEFAF1ABF0A2FEFC21AD20A82E09C
:100E3000480E511C90E139125BCF29960FB6F894F9
:100E4000DEBF0FBECDBFDF91CF911F910F91FF90FD
:100E5000EF90DF90CF90BF90AF909F908F907F905A
:100E60006F905F904F903F902F9008952F923F92F8
:100E70004F925F926F927F928F929F92AF92BF92AA
:100E8000CF92DF92EF92FF920F931F93CF93DF9356
:100E900000D000D01F92CDB7DEB75C014B010196A8
:100EA000D9F180E10E94200B26E030E0DC010E94B5
:100EB000F61544244A94F3E05F2E612C712CA301B3
:100EC00092010E944912022FA4E0EA2EE20E8FE066
:100ED0000E94200B2FE330E0DC010E94F615A301F5
:100EE00092010E944912122F322E61E0600FC4015C
:100EF0000E94040A2BEA129F212C11242694B3EBA2
:100F00006B2EB1E07B2E01ED11E08FE9482E81E0E0
:100F1000582EC12CD12C7DC051ED652E51E0752E7F
:100F200067ECC62E61E0D62E73EBE72E71E0F72E4C
:100F30000FE911E0EDEB4E2EE1E05E2E20E03324D0
:100F40003394F30111923F012C834D830E94C50518
:100F5000FCE08F9FC001112423E0222E290EF60110
:100F600021926F010E94C50590E0880F991F93257B
:100F700091704D812C8141119325F2019083822F34
:100F80008370F70181937F01822D90E00197F80132
:100F9000819391938F012F5FFFEF4F1A5F0A2A30E1
:100FA00081F67FCFF20120813181A216B306ACF524
:100FB00060913904F30181913F0196959695929D38
:100FC000902D1124839D900D1124690FF8019191AA
:100FD0008F01FFEFCF1ADF0AF92EFF0CFF0C90FFF5
:100FE00004C0F81A8F2D93E0F92EF80ECE01019669
:100FF0000E94F303F40123E0F29EE00DF11D1124A1
:10100000898180838A8181838B81828332E0430E50
:10101000511C9C2DCE1430F21CC0F601E354FE4F3F
:101020008081F801882319F080818F5F02C0808160
:10103000815F8083F80180818F708083F601E9539E
:10104000FE4F80819501280F311DF20131832083ED
:10105000AFCF0F900F900F900F900F90DF91CF9127
:101060001F910F91FF90EF90DF90CF90BF90AF90C6
:101070009F908F907F906F905F904F903F902F90B8
:101080000895089580E090E00895FC01538D448D0B
:10109000252F30E0842F90E0821B930B541710F023
:1010A000CF96089501970895FC01918D828D981730
:1010B00061F0828DDF01A80FB11D5D968C91928D3C
:1010C0009F5F9F73928F90E008958FEF9FEF089539
:1010D000FC01918D828D981731F0828DE80FF11D02
:1010E000858D90E008958FEF9FEF0895FC01918D1D
:1010F000228D892F90E0805C9F4F821B91098F7316
:10110000992708958BEC96E00E94760821E0892BC0
:1011100009F420E0822F0895FC01848DDF01A80FDF
:10112000B11DA35ABF4F2C91848D90E001968F730F
:101130009927848FA689B7892C93A089B1898C912E
:1011400080648C93938D848D981306C00288F389F4
:10115000E02D80818F7D80830895EF92FF920F9321
:101160001F93CF93DF93EC0181E0888F9B8D8C8D53
:10117000981305C0E889F989808185FD24C0F62E81
:101180000B8D10E00F5F1F4F0F731127E02E8C8D1A
:10119000E8120CC00FB607FCFACFE889F989808104
:1011A00085FFF5CFCE010E948C08F1CF8B8DFE011B
:1011B000E80FF11DE35AFF4FF0820B8FEA89FB899C
:1011C0008081806207C0EE89FF896083E889F989A0
:1011D00080818064808381E090E0DF91CF911F91D6
:1011E0000F91FF90EF900895CF93DF93EC01888DDE
:1011F0008823C9F0EA89FB89808185FD05C0A8891B
:10120000B9898C9186FD0FC00FB607FCF5CF8081A0
:1012100085FFF2CFA889B9898C9185FFEDCFCE01EA
:101220000E948C08E7CFDF91CF91089580E090E095
:10123000892B29F00E94820881110C9400000895E6
:101240000E9417161F920F920FB60F9211242F9320
:101250003F934F935F936F937F938F939F93AF933E
:10126000BF93EF93FF938BEC96E00E948C08FF9165
:10127000EF91BF91AF919F918F917F916F915F910E
:101280004F913F912F910F900FBE0F901F90189587
:101290001F920F920FB60F9211242F938F939F934B
:1012A000EF93FF93E091DB06F091DC068081E09103
:1012B000E106F091E20682FD12C090818091E40681
:1012C0008F5F8F732091E506821751F0E091E4065D
:1012D000F0E0E553F94F958F8093E40601C08081DB
:1012E000FF91EF919F918F912F910F900FBE0F90D3
:1012F0001F901895EF92FF920F931F93CF93DF9358
:10130000EC0190913A049F5F292F277020933A04B3
:1013100090FF02C090E801C090E021FD906424702D
:1013200009F0906220E1290FFE013C967E018FE0DA
:10133000E80EF11C00E011E06191662331F070E0ED
:10134000C8010E94E2156F5F01C060E0DF011497E1
:101350006C93322F369F030E30E0311D1124CF01E4
:101360000797311103C0EC01188203C03150EC0122
:101370003883662311F061506C93EE15FF05E1F69A
:10138000DF91CF911F910F91FF90EF900895CF9231
:10139000DF92EF92FF920F931F93CF93DF936C0135
:1013A0007A018B01C0E0D0E0CE15DF0589F0D801CD
:1013B0006D918D01D601ED91FC910190F081E02DB0
:1013C000C6010995892B11F47E0102C02196ECCF4C
:1013D000C701DF91CF911F910F91FF90EF90DF90A8
:1013E000CF900895009769F0FC0101900020E9F783
:1013F0003197AF01481B590BBC018BEC96E00C9464
:10140000C70980E090E008950F931F93CF93DF9377
:10141000FC0132968C0100541F4F6095DC014C9109
:10142000EF013A912081522F241708F4542F5317BB
:1014300008F4532F5C3488F0469F040E40E0411DB1
:10144000DC014C93369F030E30E0311D3883269F1C
:10145000020E20E0211D208311240396339680176D
:101460009107E1F6DF91CF911F910F9108954F926F
:101470005F926F927F928F929F92AF92BF92CF9224
:10148000DF92EF92FF920F931F93CF93DF93CDB72D
:10149000DEB72F970FB6F894DEBF0FBECDBF8C011D
:1014A000B42E411107C08FEFD8018C9311968C9305
:1014B000119786C070E080E090E00E94C0136B013D
:1014C0007C0120E030E04AEA52E40E94A51220E0CC
:1014D00030E04FE753E40E94061420E030E04AE297
:1014E00053E40E94161369837A838B839C8320E0E4
:1014F00030E04AE253E4C701B6010E9416136D833F
:101500007E838F83988720E030E04AEA52E4C70167
:10151000B6010E94A41220E030E04AE253E40E94A7
:10152000161369877A878B879C87FE0131964F0156
:101530007E01FDE0EF0EF11C670183E0A82EAE0CEA
:10154000D4014D905D906D907D904D0120E030E094
:10155000A901C301B2010E94D2141816FCF420E0C4
:1015600030E040E85FE3C301B2010E94111387FF3E
:1015700015C02BED3FE049E450E4C301B2010E94E5
:10158000D7140E94441520E030E04FE753E40E9456
:10159000D7140E948F13F601608302C0D6011C92FB
:1015A000BFEFCB1ADB0AAC10CBCFEFEFBE1222C0DD
:1015B0008F859E852D85D8012C9311969C9311972C
:1015C00012968C93C8012F960FB6F894DEBF0FBE0B
:1015D000CDBFDF91CF911F910F91FF90EF90DF90E2
:1015E000CF90BF90AF909F908F907F906F905F90C3
:1015F0004F9008958F859D852E85291708F4292FF2
:10160000281708F4282F30E0EFEFF0E06F01CB1837
:10161000D108D7014C91B901641B71096C9DC001BF
:101620006D9D900D7C9D900D1124BF010E94E215CF
:10163000842F860FD7018D937D01AA12EACFB8CFF0
:101640008E3008F08E508770806480937C0080918B
:101650007A00806480937A0080917A0086FDFCCFC6
:10166000809178002091790090E0922B08953FB707
:10167000F8948091760790917707A0917807B091C0
:10168000790726B5A89B05C02F3F19F00196A11D2B
:10169000B11D3FBFBA2FA92F982F8827820F911D08
:1016A000A11DB11DBC01CD0142E0660F771F881F4F
:1016B000991F4A95D1F708958F929F92AF92BF924A
:1016C000CF92DF92EF92FF926B017C010E94370B69
:1016D0004B015C01C114D104E104F104F1F00E945A
:1016E000370BDC01CB0188199909AA09BB09883E8F
:1016F0009340A105B10570F321E0C21AD108E108B9
:10170000F10888EE880E83E0981EA11CB11CC1145C
:10171000D104E104F10419F7DDCFFF90EF90DF90E1
:10172000CF90BF90AF909F908F9008952FB7F8946F
:101730006091C5067091C6068091C7069091C80653
:101740002FBF08953F924F925F926F927F928F9238
:101750009F92AF92BF92CF92DF92EF92FF920F9340
:101760001F93CF93DF9300D01F92CDB7DEB7F82E33
:1017700080916B0790916C07A0916D07B0916E07F7
:10178000892B8A2B8B2BE9F00E94370B0091800765
:10179000109181072091820730918307DC01CB01F2
:1017A000801B910BA20BB30B00916B0710916C0780
:1017B00020916D0730916E0780179107A207B3073C
:1017C000B8F20E94370B6093800770938107809373
:1017D000820790938307E0917307F0917407309725
:1017E00059F040916F0750917007609171077091A7
:1017F00072078F2D0995F82E0091C9061091CA061F
:101800004F2C512C612C712C0115110509F461C06C
:10181000D8011C96EC901C978091690790916A07FB
:101820008436910510F41C961C92D801ED91FC9120
:10183000A280B38019821A821B82F11014C0F801B1
:1018400045855685628173819E012F5F3F4FC80198
:10185000F5010995D8011C96EC921C9714960D91F0
:101860001C911597D1CFF8013996CE0101966C01E4
:1018700048019CE0890E911CDF0113973C90219157
:10188000332001F12223F1F0822F90E0A0E0B0E0BC
:101890009C01AD012F5F3F4F4F4F5F4FC301B2011E
:1018A0000E94C6159B01AC01832D90E0A0E0B0E042
:1018B000BC01CD016F5F7F4F8F4F9F4F0E94C615B8
:1018C000D6018C93BFEFCB1ADB0AE815F905A1F618
:1018D000B6CF80917E0790917F078C010F5F1F4FDD
:1018E00010937F0700937E0749979CF10E94960B07
:1018F0004B015C0188EE93E0089FB001099F700DD9
:10190000189F700D1124072E000C880B990BC090A6
:101910007A07D0907B07E0907C07F0907D07A501C7
:1019200094012C193D094E095F090E9473123093EE
:101930006A072093690710927F0710927E070E9422
:10194000960B60937A0770937B0780937C07909344
:101950007D070F900F900F90DF91CF911F910F9106
:10196000FF90EF90DF90CF90BF90AF909F908F90BF
:101970007F906F905F904F903F9008951F920F92CD
:101980000FB60F9211242F933F938F939F93AF9392
:10199000BF938091C5069091C606A091C706B091ED
:1019A000C8063091750723E0230F2D3720F40196E8
:1019B000A11DB11D05C026E8230F0296A11DB11D72
:1019C000209375078093C5069093C606A093C7061B
:1019D000B093C8068091760790917707A091780719
:1019E000B09179070196A11DB11D80937607909360
:1019F0007707A0937807B0937907BF91AF919F9134
:101A00008F913F912F910F900FBE0F901F901895BF
:101A1000CF93DF93CDB7DEB72E970FB6F894DEBF26
:101A20000FBECDBF789484B5826084BD84B58160DB
:101A300084BD85B5826085BD85B5816085BD809199
:101A40006E00816080936E00109281008091810011
:101A50008260809381008091810081608093810009
:101A6000809180008160809380008091B1008460CB
:101A70008093B1008091B00081608093B00080912C
:101A80007A00846080937A0080917A0082608093EB
:101A90007A0080917A00816080937A0080917A0048
:101AA000806880937A001092C10068EB7BE080E050
:101AB00090E00E945C0B8FEF9FEF9093C0068093A5
:101AC000BF0622E02093C30610923D059093C20604
:101AD0008093C10681E08093C40610923E0580E0A9
:101AE00090E0FC01E15CFA4F1082118212820396B1
:101AF000803821E09207A9F70E947A05EEEBF0E02A
:101B00002491EAEAF0E084918823C9F090E0880FFC
:101B1000991FFC01E057FF4FA591B491FC01EA57D2
:101B2000FF4F459154919FB7F8943C91822F809537
:101B300083238C93DA018C91282B2C939FBF809167
:101B40004E04811145C01092400410923F048FEF63
:101B50008093430480934404809345048093460417
:101B6000809347048093480481E080934904109255
:101B70004B0410924A041092420410924104809146
:101B8000C9069091CA06892B31F48DE394E09093B5
:101B9000CA068093C906E0913B04F0913C0430975B
:101BA00021F08DE394E0958384838DE394E090931A
:101BB0003C0480933B0410924D0410924C048BE142
:101BC00091E090933E0480933D0481E080934E0425
:101BD000E0913D04F0913E040480F581E02D8DE319
:101BE00094E009958CE794E09093400480933F043F
:101BF00080E490E090934B0480934A04E0913D048C
:101C0000F0913E040284F385E02D8DE394E0099584
:101C1000009729F19C0140E050E060E472E48FE01D
:101C200090E00E944912722F632F00916B07109170
:101C30006C0720916D0730916E07872F962FDA0180
:101C400080179107A207B30710F4D901C801809348
:101C50006B0790936C07A0936D07B0936E0781E0BC
:101C60008093490482E380936807E091DB06F0915A
:101C7000DC0682E08083E091D706F091D8061082DE
:101C8000E091D906F091DA068FEC80831092E3069A
:101C9000E091DF06F091E00686E08083E091DD06CA
:101CA000F091DE06808180618083E091DD06F09115
:101CB000DE06808188608083E091DD06F091DE069B
:101CC000808180688083E091DD06F091DE0680816E
:101CD0008F7D808344244A9483E0582E612C712C9C
:101CE000E091C306F0E0EE0FFF1FEF5CFE4F0190A6
:101CF000F081E02D40913D056FE375E08091BF06D6
:101D00009091C00609958091BF069091C0060196FA
:101D10009093C0068093BF06E091C406F0E0EE0FFA
:101D2000FF1FEF5CFE4F0190F081E02D40913E05DA
:101D30006FEF75E08091C1069091C2060995809180
:101D4000C1069091C20601969093C2068093C10687
:101D5000A0900501B090060100913C05BFEFAB16C5
:101D6000BB0679F5E0E40E9F80011124C801880FBD
:101D7000991F080F191F80E090E0FC01E00FF11F90
:101D8000E15CFA4FDC01A458BB4F20812C932181E8
:101D900011962C931197228112962C930396803CD6
:101DA000910559F780917A0490917B048C32F1E08F
:101DB0009F070CF092C0019690937B0480937A0465
:101DC0008CC02090780430907904B101032C000C71
:101DD000880B990B0E94C0136B017C01B5010B2C81
:101DE000000C880B990B0E94C0139B01AC01C7012A
:101DF000B6010E94161320E030E04FE753E40E9442
:101E0000D7140E948F13862E9090040120E4929E96
:101E100070011124C701880F991F8E0D9F1DDC01D1
:101E2000AF5BBA4F7D01B0E40B9F80011124C80164
:101E3000880F991F080F191F0F5B1A4FC12CD12C47
:101E4000F701329780818987319680818A87F701EF
:101E500080818B87F801329780818C8731968081D1
:101E60008D87D8018C918E87282DAE01475F5F4FFB
:101E7000BE01645F7F4FCE0101960E94A403F6016C
:101E8000E458FB4F898180838A8181838B8182839F
:101E9000B3E0CB0ED11CE3E0EE0EF11C0D5F1F4F43
:101EA000F0ECCF16D10461F62FEF221A320A2A1471
:101EB0003B042CF430927904209278040EC01092E6
:101EC0007904109278048FEF9FEF9093060180932E
:101ED000050190923C0510920401809168070E94D0
:101EE000A20B0E94960B6B017C0161E070E080E028
:101EF00090E00E945C0B809168070E94A20B0E94F8
:101F0000960BDC01CB018C199D09AE09BF0908971E
:101F1000A105B10550F380917004811119C00E9490
:101F2000960B609368047093690480936A0490939D
:101F30006B0488EC90E0A0E0B0E080936C04909398
:101F40006D04A0936E04B0936F0481E080937004DD
:101F50000E94960B009168041091690420916A0414
:101F600030916B04DC01CB01801B910BA20BB30BF6
:101F700000916C0410916D0420916E0430916F04F7
:101F800080179107A207B30780F00E94960B609319
:101F900068047093690480936A0490936B04809141
:101FA00039048F5F8F778093390481E10E94200B81
:101FB0008C0120916404309165048217930711F419
:101FC000F12C4EC0821B930B97FF03C09195819516
:101FD0009109409784F02FEF30E0D8010E94F61568
:101FE000A30192010E9449122093380410936504C2
:101FF0000093640433C087E0829FD001839FB00DBB
:102000001124B7FD1796E3E0B595A795EA95E1F79A
:1020100017FF02C0095F1F4F73E0159507957A956A
:10202000E1F7A00FB11FB0936504A09364042FEFF4
:1020300030E00E94F615A30192010E94491280919E
:10204000380490E0821B910997FF03C09195819518
:10205000910902970CF4B4CF20933804FF24F39431
:102060008EE00E94200B8C01209162043091630469
:102070008217930709F4CDC1821B930B97FF03C00E
:10208000919581959109409714F125E530E0D801AB
:102090000E94F615A30192010E944912622F70E07E
:1020A00080E090E00E94BE139B01AC010E94D71417
:1020B00020E030E04AEA52E40E9416130E948F1397
:1020C00060933704109363040093620445C087E073
:1020D000829FD001839FB00D1124B7FD179663E056
:1020E000B595A7956A95E1F717FF02C0095F1F4FE5
:1020F00053E0159507955A95E1F7A00FB11FB093DE
:102100006304A093620425E530E00E94F615A30164
:1021100092010E944912622F70E080E090E00E94DC
:10212000BE139B01AC010E94D71420E030E04AEAC4
:1021300052E40E9416130E948F138091370490E09E
:10214000861B910997FF03C091958195910902978C
:102150000CF45FC1609337040E947A0509E211E034
:10216000DE0111966D014AE5E42E44E0F42EB12C17
:10217000F80180810E5F1F4F0E94200BD6018D93C6
:102180009D936D01F701219131917F01B1100DC037
:10219000281B390B37FF03C0319521953109BB242A
:1021A000B394293131050CF4B12CF1E001331F0750
:1021B000F9F6BB2039F189819A8190935B04809371
:1021C0005A048B819C8190935D0480935C048D8183
:1021D0009E8190935F0480935E048F819885909395
:1021E00061048093600421E030E03093590420932F
:1021F0005804109257041092560489E491E00E940A
:10220000F2091EC08091580490915904892BC1F0A5
:1022100080915604909157040196909357048093AF
:102220005604853F914064F085E591E00E94F209F3
:1022300010925904109258041092570410925604A8
:10224000E2EDF0E09491EEEBF0E08491EAEAF0E068
:102250002491222309F43AC0992339F1933091F063
:1022600038F49130A9F0923001F594B59F7D12C0F9
:10227000973091F09830A1F09430B9F490918000AB
:102280009F7D03C0909180009F77909380000DC048
:1022900094B59F7794BD09C09091B0009F7703C01B
:1022A0009091B0009F7D9093B000E22FF0E0EE0F90
:1022B000FF1FE656FF4FA591B4919C91892331E011
:1022C00020E009F430E0832F922F02C080E090E0FC
:1022D000209103010197B9F02F3F31F481E0809301
:1022E000670480E691E00CC02A310CF486C080912E
:1022F0006604811182C081E0809366048FE691E0DC
:102300000E94F2097AC028300CF477C080916604EC
:1023100081116CC08BE791E00E94F20900910501E8
:10232000109106010F3FFFEF1F07A1F510927904EE
:102330001092780480E590E0909306018093050167
:10234000E0903C05F12C2FEFE21AF20A31E0E32293
:10235000FF24E0920401F701EE0FFF1FE154F94F53
:10236000118300830E94C505F701E35CFA4F90E0FA
:10237000880F991F892F8170808380910201F70156
:10238000ED53F94F80838F5F63E00E94D6159093E1
:1023900002012CC010927B0410927A0460917804A0
:1023A00070917904072E000C880B990B0E94C013C2
:1023B0006B017C01B801110F880B990B0E94C013AF
:1023C0009B01AC01C701B6010E941613A70196013B
:1023D0000E94D7140E948813709379046093780444
:1023E00080E590E0909306018093050110926704C8
:1023F0008FEF809303011092660480916704882315
:1024000029F0809103018F5F809303010E941609D8
:1024100067CCFF2009F4A2CE9FCEEBECF6E013824E
:10242000128288EE93E0A0E0B0E084839583A683D7
:10243000B7838BE391E09183808385EC90E095876F
:10244000848784EC90E09787868780EC90E0918B7E
:10245000808B81EC90E0938B828B82EC90E0958B6B
:10246000848B86EC90E0978B868B118E128E138E68
:10247000148EE8E6F7E08FEF8083128211821486D3
:1024800013868FEF9FEFDC0187839087A187B28748
:102490000895052E97FB1EF400940E94601257FDCC
:1024A00007D00E94731207FC03D04EF40C94601204
:1024B00050954095309521953F4F4F4F5F4F089570
:1024C00090958095709561957F4F8F4F9F4F0895A0
:1024D0000E949512A59F900DB49F900DA49F800D12
:1024E000911D11240895A1E21A2EAA1BBB1BFD0108
:1024F0000DC0AA1FBB1FEE1FFF1FA217B307E407E3
:10250000F50720F0A21BB30BE40BF50B661F771F3A
:10251000881F991F1A9469F760957095809590951A
:102520009B01AC01BD01CF010895A29FB001B39FF3
:10253000C001A39F700D811D1124911DB29F700DCC
:10254000811D1124911D08955058BB27AA270E9470
:10255000BC120C9498140E948A1438F00E949114B2
:1025600020F039F49F3F19F426F40C9487140EF4EC
:10257000E095E7FB0C947314E92F0E94A91458F31B
:10258000BA17620773078407950720F079F4A6F558
:102590000C94CB140EF4E0950B2EBA2FA02D0B014A
:1025A000B90190010C01CA01A0011124FF27591B98
:1025B00099F0593F50F4503E68F11A16F040A22F9E
:1025C000232F342F4427585FF3CF4695379527950F
:1025D000A795F0405395C9F77EF41F16BA0B620B0E
:1025E000730B840BBAF09150A1F0FF0FBB1F661F55
:1025F000771F881FC2F70EC0BA0F621F731F841F98
:1026000048F4879577956795B795F7959E3F08F0BD
:10261000B0CF9395880F08F09927EE0F979587957F
:1026200008950E944F1408F481E008950E942A132F
:102630000C9498140E94911458F00E948A1440F04F
:1026400029F45F3F29F00C94731451110C94CC14AD
:102650000C9487140E94A91468F39923B1F35523AD
:1026600091F3951B550BBB27AA27621773078407A5
:1026700038F09F5F5F4F220F331F441FAA1FA9F33B
:1026800035D00E2E3AF0E0E832D091505040E69529
:10269000001CCAF72BD0FE2F29D0660F771F881F8A
:1026A000BB1F261737074807AB07B0E809F0BB0B7D
:1026B000802DBF01FF2793585F4F3AF09E3F510591
:1026C00078F00C9473140C94CC145F3FE4F3983EB0
:1026D000D4F3869577956795B795F7959F5FC9F77A
:1026E000880F911D9695879597F90895E1E0660FFB
:1026F000771F881FBB1F621773078407BA0720F074
:10270000621B730B840BBA0BEE1F88F7E0950895DC
:102710000E948F136894B1110C94CC1408950E94F8
:10272000B11488F09F5798F0B92F9927B751B0F09E
:10273000E1F0660F771F881F991F1AF0BA95C9F745
:1027400014C0B13091F00E94CB14B1E008950C9404
:10275000CB14672F782F8827B85F39F0B93FCCF3B7
:10276000869577956795B395D9F73EF490958095C2
:10277000709561957F4F8F4F9F4F0895E89409C0E2
:1027800097FB3EF490958095709561957F4F8F4FA4
:102790009F4F9923A9F0F92F96E9BB279395F695BA
:1027A000879577956795B795F111F8CFFAF4BB0F38
:1027B00011F460FF1BC06F5F7F4F8F4F9F4F16C09C
:1027C000882311F096E911C0772321F09EE8872F26
:1027D000762F05C0662371F096E8862F70E060E0E2
:1027E0002AF09A95660F771F881FDAF7880F96955B
:1027F000879597F908950E948A1420F019F00E9495
:10280000911450F40C9487140C94CC14E92F0E946A
:10281000A91488F35523B1F3E7FB62177307840704
:102820009507A8F189F3E92FFF2788232AF031972C
:10283000660F771F881FDAF7952F5527442332F04C
:1028400091505040220F331F441FD2F7BB27E91B82
:10285000F50B621B730B840BB109B1F222F4620F0A
:10286000731F841FB11D31972AF0660F771F881FD1
:10287000BB1FEFCF9150504062F041F0882332F0FF
:10288000660F771F881F91505040C1F793950C94A5
:1028900079148695779567959F5FD9F7F7CF990F4C
:1028A0000008550FAA0BE0E8FEEF16161706E8071A
:1028B000F907C0F012161306E407F50798F0621B3B
:1028C000730B840B950B39F40A2661F0232B242B10
:1028D000252B21F408950A2609F4A140A6958FEF2F
:1028E000811D811D089597F99F6780E870E060E081
:1028F00008959F3F31F0915020F487957795679523
:10290000B795880F911D9695879597F908959FEF34
:1029100080EC089500240A94161617061806090676
:10292000089500240A941216130614060506089545
:10293000092E0394000C11F4882352F0BB0F40F4CD
:10294000BF2B11F460FF04C06F5F7F4F8F4F9F4F0D
:10295000089557FD9058440F551F59F05F3F71F08F
:102960004795880F97FB991F61F09F3F79F08795F6
:102970000895121613061406551FF2CF4695F1DF7F
:1029800008C0161617061806991FF1CF869571050F
:10299000610508940895E894BB2766277727CB0143
:1029A00097F908950E944F1408F48FEF08950E943C
:1029B000EA140C9498140E948A1438F00E9491141E
:1029C00020F0952311F00C9473140C9487141124A7
:1029D0000C94CC140E94A91470F3959FC1F3950F29
:1029E00050E0551F629FF001729FBB27F00DB11D93
:1029F000639FAA27F00DB11DAA1F649F6627B00D23
:102A0000A11D661F829F2227B00DA11D621F739F0B
:102A1000B00DA11D621F839FA00D611D221F749F19
:102A20003327A00D611D231F849F600D211D822F60
:102A3000762F6A2F11249F5750409AF0F1F0882387
:102A40004AF0EE0FFF1FBB1F661F771F881F9150B4
:102A50005040A9F79E3F510580F00C9473140C94DC
:102A6000CC145F3FE4F3983ED4F386957795679551
:102A7000B795F795E7959F5FC1F7FE2B880F911DDE
:102A80009695879597F908959F930E944E150F90FC
:102A900007FCEE5F0C9477150C9487140E94B11418
:102AA000D8F3E894E0E0BB279F57F0F02AED3FE031
:102AB00049EC06C0EE0FBB0F661F771F881F28F07A
:102AC000B23A62077307840728F0B25A620B730B9D
:102AD000840BE3959A9572F7803830F49A95BB0F82
:102AE000661F771F881FD2F790480C947B14EF93D2
:102AF000E0FF07C0A2EA2AED3FE049EC5FEB0E944D
:102B0000BC120E9498140F90039401FC9058E8E6C0
:102B1000F0E00C948B159F938F937F936F93FF93AB
:102B2000EF939B01AC010E94D714EF91FF910E949B
:102B30009F152F913F914F915F910C94D714DF9384
:102B4000CF931F930F93FF92EF92DF927B018C0143
:102B5000689406C0DA2EEF010E94EA14FE01E894A0
:102B6000A5912591359145915591A6F3EF010E94CC
:102B7000BC12FE019701A801DA9469F7DF90EF908B
:102B8000FF900F911F91CF91DF910895DB018F93FB
:102B90009F930E946812BF91AF91A29F800D911DDB
:102BA000A39F900DB29F900D11240895991B79E079
:102BB00004C0991F961708F0961B881F7A95C9F7CD
:102BC0008095089597FB072E16F4009407D077FDA3
:102BD00009D00E94FD1507FC05D03EF49095819523
:102BE0009F4F0895709561957F4F08950E949512AB
:102BF000B7FF0895821B930B0895AA1BBB1B51E1DD
:102C000007C0AA1FBB1FA617B70710F0A61BB70B5C
:102C1000881F991F5A95A9F780959095BC01CD0101
:102C20000895EE0FFF1F0590F491E02D099481E0C7
:0C2C300090E0F8940C941C16F894FFCF70
:102C3C00390502FF01FFFF000000002009200920D8
:102C4C0009A700A300A0000000000061031D039E63
:102C5C0000A700A3009B00CB0011000E000F00107A
:102C6C0000A1043607000600000000AD08C70945A6
:102C7C0008F408760854086808747765616B206658
:102C8C006F756E64006E6F20706C6179696E670091
:102C9C00627574746F6E2070726573736564006214
:102CAC007574746F6E2068656C6400706174746503
:0A2CBC00726E206368616E676500A8
:00000001FF
