:100000000C9471000C9499000C9499000C94990034
:100010000C9499000C9499000C9499000C949900FC
:100020000C9499000C9499000C9499000C949900EC
:100030000C9499000C9499000C9499000C949900DC
:100040000C9438100C9499000C94260D0C94000D0F
:100050000C9499000C9499000C9499000C949900BC
:100060000C9499000C94990005A84CCDB2D44EB9CB
:100070003836A9020C50B9918688083CA6AAAA2A4B
:10008000BE000000803F00000000250028002B007B
:1000900000000000240027002A00000000002300C8
:1000A00026002900040404040404040402020202D9
:1000B000020203030303030301020408102040802B
:1000C00001020408102001020408102000000008AA
:1000D000000201000003040700000000000000000F
:1000E0008A1511241FBECFEFD8E0DEBFCDBF11E0CF
:1000F000A0E0B1E0E6E3F3E302C005900D92A03981
:10010000B107D9F727E0A0E9B1E001C01D92AA32FA
:10011000B207E1F710E0C1E7D0E004C02197FE018B
:100120000E948E19C037D107C9F70E9482100C9423
:1001300099190C9400006370982F9F70990F990F74
:1001400080FD03C0892F860F0895892F861B8D5F40
:10015000089580E090E00895FC01858596850895D6
:10016000CF93DF9300D000D000D0CDB7DEB7AB0186
:100170001C821D821E82DC01ED91FC910190F081B8
:10018000E02D19821A821B829E012F5F3F4FBE0114
:100190006C5F7F4F099526960FB6F894DEBF0FBEB1
:1001A000CDBFDF91CF91089560910101709102015F
:1001B00045E058E0649F9001659F300D749F300DBD
:1001C0001124275E394C3093020120930101230F43
:1001D000289FC0011124892F08950F931F93CF9357
:1001E000DF938C01C62FD0E089E10E94D400FE018C
:1001F000EE0FFF1FE25DFD4F080F111D11830083FD
:10020000FE01EC5FFD4F8FEF8083C05EDD4F1882F3
:10021000DF91CF911F910F9108950F931F93CF936B
:10022000DF93CDB7DEB762970FB6F894DEBF0FBE8F
:10023000CDBF8C01F901DC011C968C917A83698316
:100240005C834B835E834D8390819D8791819E87E4
:1002500092819F87813029F4CE0101960E94DE0BA6
:1002600006C01C861B861A86198618861F82188A65
:100270001A8A198AD801ED91FC910484F585E02D44
:10028000BE016F5F7F4FC801099562960FB6F89463
:10029000DEBF0FBECDBFDF91CF911F910F910895AB
:1002A0000F931F93CF93DF93CDB7DEB762970FB64F
:1002B000F894DEBF0FBECDBF8C01F901DC011C96A6
:1002C0008C917A8369835C834B835E834D839081B9
:1002D0009D8791819E8792819F87813029F4CE01ED
:1002E00001960E94DE0B06C01C861B861A861986A4
:1002F00018861F8283E0888B1A8A198AD801ED91AB
:10030000FC910484F585E02DBE016F5F7F4FC8012D
:10031000099562960FB6F894DEBF0FBECDBFDF9190
:10032000CF911F910F910895CF93DF93FB01A0818F
:10033000B181EA0128813981BC01621B730B9B01E9
:1003400077FF03C0319521953109BC016A1B7B0BF6
:1003500077FF03C0719561957109261737070CF473
:100360009B012031310534F091838083EA01998328
:1003700088831AC047E04A9F90014B9F300D11249B
:1003800037FF02C0295F3F4F53E0359527955A95B7
:10039000E1F797FD079643E0959587954A95E1F734
:1003A000820F931F91838083DF91CF910895AF9245
:1003B000BF92CF92DF92EF92FF920F931F93CF9352
:1003C000DF9300D000D01F92CDB7DEB78C018FE451
:1003D00091E00E94830DA0900701B09008018FEF7B
:1003E000A816B80609F045C01092DE031092DD038E
:1003F00010930801009307010091E10310E00F5FE3
:100400001F4F0170112700930601F801EE0FFF1F27
:10041000EC51FC4FB182A08282E00E94D400F8012E
:10042000EE51FC4F91E0811101C090E0908330913A
:10043000E8032091E90390E080E0381711F02813D9
:1004400043C08F5F8730C9F70091060110E085E057
:100450000E94D400F801E851FC4FDE01A80FB11D45
:1004600011968C9180830FB6F894DEBF0FBECDBF7E
:1004700034C01092E0031092DF036091DD037091AD
:10048000DE03072E000C880B990B0E943D176B01B1
:100490007C01B501BB0C880B990B0E943D179B0199
:1004A000AC01C701B6010E949316A70196010E94F4
:1004B00054180E9405177093DE036093DD031093B8
:1004C00008010093070109C0E1E0F0E0EC0FFD1F17
:1004D000E90FF11D80839F5FB4CF0F900F900F90B5
:1004E0000F900F90DF91CF911F910F91FF90EF90A0
:1004F000DF90CF90BF90AF900895DF92EF92FF9280
:100500000F931F93CF93DF93FC017B01DA014C9192
:10051000CFEFD0E08E01021B11091196DC901197EC
:1005200012963C91DB0112965C91509FC001519F45
:10053000900D1124329F800D911D1124BE010E9447
:100540005F19362FD70111965C91509FC001519FC2
:10055000900D1124D29E800D911D1124BE010E9488
:100560005F19D62ED7015C91509FC001519F900D0D
:100570001124429F800D911D1124BE010E945F191C
:100580006083D1823283CF01DF91CF911F910F9190
:10059000FF90EF90DF900895AF92BF92CF92DF92DD
:1005A000EF92FF920F931F93CF93DF93CDB7DEB7F8
:1005B00029970FB6F894DEBF0FBECDBF7C01962FF2
:1005C000603620F0862F60E60E945319092F10E054
:1005D00098012B5A3D4F5901D9018C916801CC0CDF
:1005E000DD1C882309F456C0292F2F71BFEF2B9FE4
:1005F0009001112485E0359527958A95E1F7903291
:1006000090F480914F028C83809150028D83809171
:1006100051028E8380914C02898380914D028A839E
:1006200080914E021FC0509152024091530280911E
:100630005402903460F45C834D838E8380914F022A
:100640008983809150028A83809151020BC09091DE
:100650004C029C8390914D029D8390914E029E830B
:1006600059834A838B83AE014C5F5F4FBE016F5F3E
:100670007F4FCE0107960E947D02F601E00FF11F29
:10068000E954FD4F8F8180838885818389858283AA
:10069000F50110820C0D1D1DF801E954FD4F8081FC
:1006A000D7018C93818111968C9311978281129638
:1006B0008C93C70129960FB6F894DEBF0FBECDBF4D
:1006C000DF91CF911F910F91FF90EF90DF90CF902E
:1006D000BF90AF9008952F923F924F925F926F928A
:1006E0007F928F929F92AF92BF92CF92DF92EF92C2
:1006F000FF920F931F93CF93DF93CDB7DEB7299768
:100700000FB6F894DEBF0FBECDBF7C014B01242E87
:10071000019669F410E0612F8FEF9FEF0E94ED00CA
:100720001F5F1E30C1F710924B0210924A026CE01C
:10073000C4010E94950DA091DA03B091DB0320E67D
:1007400030E00E94731944244A94E3E05E2E612C49
:10075000712CA30192010E94C615122F2D83A09126
:10076000D803B091D90327E030E00E947319A301A8
:1007700092010E94C615295F2E8316951F8321E0E2
:100780002C8380914A0290914B02E816F90614F4EA
:100790001C8206C0C701059690934B0280934A02C3
:1007A00000E212E032E1A32E32E0B32E44E0C42E88
:1007B00042E0D42E5EE2452E52E0552E312C65E00B
:1007C000662E68E0762E2E81321608F083C0F20184
:1007D000808191818E159F050CF045C0019609F42A
:1007E00042C08FEF9FEFF20191838083211003C0FD
:1007F000F801108203C023E0F80120838D810E945C
:10080000D4002F81821BF50180832091010130915A
:100810000201269DC001279D900D369D900D11244B
:10082000875E994C869D9001879D300D969D300D79
:100830001124275E394C269DC001279D900D369DC1
:10084000900D1124875E994C9093020180930101D1
:10085000A0E0B0E02CE0B695A795979587952A95EE
:10086000D1F7F6018083F60180818F3FD9F1F50140
:1008700020819091DC03920FF8012081622F29875B
:1008800098870E949B00382F9885692FCE0101968A
:1008900038870E94CC023885F40183E0389FE00D50
:1008A000F11D1124898180838A8181838B818283D8
:1008B00029859C819923B1F0211006C02F5FF80192
:1008C0002083243078F00AC0222341F02150F8011F
:1008D000208308C0F60180818F3F21F0632DC7017E
:1008E0000E94ED0033940F5F1F4FFFEFAF1ABF0A56
:1008F0002FEFC21AD20A82E0480E511C9EE0391234
:1009000062CF29960FB6F894DEBF0FBECDBFDF9140
:10091000CF911F910F91FF90EF90DF90CF90BF90FC
:10092000AF909F908F907F906F905F904F903F908F
:100930002F9008952F923F924F925F926F927F92E5
:100940008F929F92AF92BF92CF92DF92EF92FF92DF
:100950000F931F93CF93DF9300D000D000D0CDB77B
:10096000DEB78C017B010F3F8FEF180709F446C0FB
:100970006091D8037091D903CB01770FAA0BBB0B01
:10098000BC01CD01E2E0660F771F881F991FEA9531
:10099000D1F788248A94F3E09F2EA12CB12CA501D5
:1009A00094010E94C615C22EE4E0E20FEC83A091F0
:1009B000DA03B091DB0328E130E00E947319A5014E
:1009C00094010E94C615D22E422E61E06C0DC70123
:1009D0000E94950D2BEAD29E312C11243694A4EE60
:1009E0008A2EA1E09A2EBCEFCB2EB1E0DB2E84ED57
:1009F000682E81E0782EA12CB12C74C02CEF622ED1
:100A000021E0722E34EF832E31E0932E54EEA52E8A
:100A100051E0B52E64EDC62E61E0D62E7CEE472E59
:100A200071E0572E20E022242394F30111923F011C
:100A30008CE02D834E830E94D40093E0392E380E33
:100A4000F40131924F0182E00E94D400817082252E
:100A50004E812D8141118225F2018083822F837086
:100A6000F50181935F01832D90E00197F601819359
:100A700091936F012F5FFFEF4F1A5F0A2830A9F69D
:100A800077CFF301208131810217130784F520907D
:100A9000DC03F40161914F0196959695939D902DFD
:100AA0001124649D900D1124290EFFEFAF1ABF0A87
:100AB000F60181916F010E949B00582E622DCE019C
:100AC00001960E94CC02F70183E0589EE00DF11DD3
:100AD0001124898180838A8181838B818283E2E0F2
:100AE0006E0E711C9A2DFC81AF1658F21CC0F501D8
:100AF000E451FE4F8081F601882319F080818F5FD9
:100B000002C08081815F8083F60180818F70808345
:100B1000F501EC50FE4F80819801280F311DF30143
:100B200031832083B4CF26960FB6F894DEBF0FBE74
:100B3000CDBFDF91CF911F910F91FF90EF90DF908C
:100B4000CF90BF90AF909F908F907F906F905F906D
:100B50004F903F902F9008955F926F927F928F9267
:100B60009F92AF92BF92CF92DF92EF92FF920F933C
:100B70001F93CF93DF9300D000D0CDB7DEB78C01A9
:100B80007B01C42E0F3F8FEF180781F4E4ECF1E0F6
:100B90009FEF80E18E0F91938E13FDCF1092C301D2
:100BA0001092C2011092C1011092C001A091D8030D
:100BB000B091D9032EE030E00E9473192FEF33E09B
:100BC00040E050E00E94C61561E0620FC7012C832F
:100BD0000E94950D8091C2019091C301A801481B0C
:100BE000590B8FE02C81821B90E084179507A4F4A9
:100BF0001093C3010093C2019091BF01E92FF0E06F
:100C0000EC53FE4FC11002C0108202C083E080830B
:100C10009F5F9F709093BF01882483948091C0014F
:100C20009091C1010817190714F4812C06C0085FC0
:100C30001F4F1093C1010093C001A091DA03B0913E
:100C4000DB0326E030E00E9473192FEF33E040E031
:100C500050E00E94C615922E04EC11E0A12CB12C9C
:100C600066246A94F801D080FFEFDF1651F170908E
:100C7000DC037A0C6D2D8B2D0E949B00582E672D66
:100C8000CE0101960E94CC02F70183E0589EE00D50
:100C9000F11D1124898180838A8181838B818283E4
:100CA000882079F0C11009C091E09D0DF8019430C1
:100CB00014F4908306C0608204C0F80180818150E2
:100CC0008083B3940F5F1F4FA90CF0E1BF12CACF0E
:100CD0000F900F900F900F90DF91CF911F910F9178
:100CE000FF90EF90DF90CF90BF90AF909F908F904C
:100CF0007F906F905F9008954F925F926F927F9276
:100D00008F929F92AF92BF92CF92DF92EF92FF921B
:100D10000F931F93CF93DF9300D01F92CDB7DEB711
:100D20008C017B010196A1F4EDE9F1E09FEF82E2F5
:100D30008E0F91938E13FDCF10929C0110929B0108
:100D400010929A01109299011092980110929701B5
:100D5000A091D803B091D9032EE130E00E9473191D
:100D60002FEF33E040E050E00E94C61580E2D82E1D
:100D7000D21A6EE1C7010E94950D80919901909160
:100D80009A0136E0D39E800D911D11240817190792
:100D90008CF080919B01E0919C01F0E0E356FE4FC6
:100DA000E80FF11D10828F5F80939B0110939A01D1
:100DB00000939901A091DA03B091DB032CE030E0BD
:100DC0000E9473192FEF33E040E050E00E94C615F7
:100DD000522E88248394809197019091980108174E
:100DE00019070CF4812C912CC12C82E2A82EB12C75
:100DF00044244A9430919B01931680F520919C01E4
:100E0000892D90E0820F911DB5010E945F196091BC
:100E1000DC03FC01E356FE4F3F01D080589E600D7D
:100E20001124CE0101960E94CC02F70123E0D29E4C
:100E3000E00DF11D1124898180838A8181838B815A
:100E40008283882049F081E08D0DF301803414F411
:100E5000808302C04082C3949394CCCF882089F0D1
:100E60000A5F1F4F109398010093970180919C0196
:100E70008C0D62E20E94531990939C013C193093AF
:100E80009B010F900F900F90DF91CF911F910F91C9
:100E9000FF90EF90DF90CF90BF90AF909F908F909A
:100EA0007F906F905F904F900895BF92CF92DF92A6
:100EB000EF92FF920F931F93CF93DF9300D01F9277
:100EC000CDB7DEB77C018B01B42E8FEFE816F806A4
:100ED00031F4109296011092950110929401A09114
:100EE000D803B091D9038091940190919501670145
:100EF000C81AD90A2EE030E00E9473192FEF33E0B0
:100F000040E050E00E94C615822F2FE0281B30E001
:100F1000C216D3060CF446C0F0929501E0929401FB
:100F200080919601B11002C08F5F01C08150809303
:100F300096018091960160E60E945319D92E9093F4
:100F40009601A091DA03B091DB032CE030E00E941F
:100F500073192FEF33E040E050E00E94C615E22EF7
:100F60000E5F1F4FF12C6091DC036D0D6F0DEE20B5
:100F700029F06E9DB001112475956795CE010196FB
:100F80000E94CC02F80132978981808331968A8150
:100F900080838B81F8018083F3940D5F1F4FF0E411
:100FA000FF12E1CF0F900F900F90DF91CF911F9123
:100FB0000F91FF90EF90DF90CF90BF9008954F92E8
:100FC0005F926F927F928F929F92AF92BF92CF92D9
:100FD000DF92EF92FF920F931F93CF93DF9300D096
:100FE0001F92CDB7DEB77C016B01842E8FEFE81620
:100FF000F80631F41092930110929201109291012F
:10100000A091D803B091D90327E030E00E94731972
:1010100044244A9423E0522E612C712CA3019201A6
:101020000E94C61501E0020FA091DA03B091DB0324
:101030002CE030E00E947319A30192010E94C615B2
:10104000A22E902F990F900F65E0690FC6010E94A4
:10105000950DB12C10E0113029F0123029F0812FBC
:10106000880F03C084E001C082E01017E0F4909084
:10107000DC039B0C9091930160919001890F0E9479
:101080009B00782E692DCE0101960E94CC02F601BC
:1010900083E0789EE00DF11D1124898180838A818F
:1010A00081838B8182831F5FBA0C1830A1F68091F7
:1010B000910190919201E816F9065CF190919301EB
:1010C000811002C09F5F01C0915090939301809165
:1010D00093018F708093930186E0E80EF11CF092EB
:1010E0009201E092910190910001809190019923E9
:1010F00039F0833019F4109200010BC08F5F07C0E4
:10110000811104C081E08093000103C0815080936D
:1011100090010F900F900F90DF91CF911F910F9141
:10112000FF90EF90DF90CF90BF90AF909F908F9007
:101130007F906F905F904F9008954F925F926F9263
:101140007F928F929F92AF92BF92CF92DF92EF9257
:10115000FF920F931F93CF93DF9300D01F92CDB7D1
:10116000DEB76B01842EA091D803B091D90324E699
:1011700030E00E94731944244A9423E0522E612CDB
:10118000712CA30192010E94C61532E3932E920E98
:10119000A091DA03B091DB0320E330E00E947319E1
:1011A000A30192010E94C615022F722E882041F0E1
:1011B000892D64E10E945319682FC6010E94950D84
:1011C00024E0929EC001112465E070E00E945F1946
:1011D0005B01069510E08EE1E82EF12C8FEF0E9466
:1011E000D400891568F5811004C090E08A159B052C
:1011F000A4F4872D0E94D4009091DC03E82FF0E046
:10120000E90FF11DBF01601B710BCE0101960E9419
:10121000CC0249805A806B8003C0612C512C412C38
:1012200080E40E94D400F60193E0899FE00DF11D57
:10123000112440825182628221E0E21AF10871F6A3
:101240000F900F900F90DF91CF911F910F91FF9012
:10125000EF90DF90CF90BF90AF909F908F907F9056
:101260006F905F904F900895CF93DF9300D01F92BF
:10127000CDB7DEB76091D703CE0101960E94C80DAD
:10128000898180934C028A8180934D028B81809367
:101290004E02609103018091D703680FCE01019641
:1012A0000E94C80D898180934F028A8180935002E9
:1012B0008B81809351026091D70380910301681B59
:1012C000CE0101960E94C80D8981809352028A81C5
:1012D000809353028B8180935402E5E5F2E091E024
:1012E00080E68E0F91938E13FDCF0F900F900F908D
:1012F000DF91CF91089580E090E0892B29F00E9442
:101300006C0C81110C940000089580E991E008951F
:10131000579A08950E9494194F925F926F927F920C
:101320008F92AF92BF92CF92DF92EF92FF921F9374
:10133000CF93DF933C01EB010E94B10EF3012785AF
:101340003089621B730B6A307105B0F3F894E88141
:10135000F9817BB170688BB18F778BB9CA849F811B
:101360002C2D291B922F2F83BF844A805B80FD8404
:10137000EC84DE84F394E394D3943E814885A9847D
:101380008B841181D20120E0522F622F61811127BD
:1013900088946111690F08F46FEF91958894F0FCBF
:1013A000160F17958894F1FC160F17958894F2FC88
:1013B000160F17958894F3FC160F17958894F4FC74
:1013C000160F17958894F5FC160F17958894F6FC60
:1013D000160F17958894F7FC160F17958894262FEB
:1013E000F110212F9C0D122F002C7BB900C000C0E2
:1013F00017FF8BB960812227889400C0002C8BB91D
:101400006111630F00C0002C7BB900C000C016FF43
:101410008BB908F46FEF3195889400C0002C8BB91C
:10142000E0FC260F00C0002C7BB900C000C015FFF7
:101430008BB927958894E1FC260F00C0002C8BB94E
:101440002795889400C0002C7BB900C000C014FF11
:101450008BB9E2FC260F2795889400C0002C8BB92D
:10146000E3FC260F00C0002C7BB900C000C013FFB6
:101470008BB927958894E4FC260F00C0002C8BB90B
:101480002795889400C0002C7BB900C000C012FFD3
:101490008BB9E5FC260F2795889400C0002C8BB9EA
:1014A000E6FC260F00C0002C7BB900C000C011FF75
:1014B0008BB927958894E7FC260F00C0002C8BB9C8
:1014C0002795889400C0002C7BB900C000C010FF95
:1014D0008BB9162FE110122F3A0D00C0002C8BB9DA
:1014E00000C000C0002C7BB900C000C017FF8BB942
:1014F00062812227889400C0002C8BB96111640F8F
:1015000000C0002C7BB900C000C016FF8BB908F4E6
:101510006FEFEB0DF11D00C0002C8BB9D0FC260F36
:1015200000C0002C7BB900C000C015FF8BB9279507
:101530008894D1FC260F00C0002C8BB92795889485
:1015400000C0002C7BB900C000C014FF8BB9D2FCD6
:10155000260F2795889400C0002C8BB9D3FC260F4A
:1015600000C0002C7BB900C000C013FF8BB92795C9
:101570008894D4FC260F00C0002C8BB92795889442
:1015800000C0002C7BB900C000C012FF8BB9D5FC95
:10159000260F2795889400C0002C8BB9D6FC260F07
:1015A00000C0002C7BB900C000C011FF8BB927958B
:1015B0008894D7FC260F00C0002C8BB927958894FF
:1015C00000C0002C7BB900C000C010FF8BB9162FE3
:1015D000D110122F419500C0002C8BB9480D00C0CE
:1015E00000C07BB900C000C017FF8BB96181222702
:1015F000889400C0002C8BB96111690F00C0002CC9
:101600007BB900C000C016FF8BB908F46FEF91954D
:10161000889400C0002C8BB9F0FC260F00C0002C71
:101620007BB900C000C015FF8BB927958894F1FCE9
:10163000260F00C0002C8BB92795889400C0002C81
:101640007BB900C000C014FF8BB9F2FC260F2795B0
:10165000889400C0002C8BB9F3FC260F00C0002C2E
:101660007BB900C000C013FF8BB927958894F4FCA8
:10167000260F00C0002C8BB92795889400C0002C41
:101680007BB900C000C012FF8BB9F5FC260F27956F
:10169000889400C0002C8BB9F6FC260F00C0002CEB
:1016A0007BB900C000C011FF8BB927958894F7FC67
:1016B000260F00C0002C8BB92795889400C0002C01
:1016C0007BB900C000C010FF8BB9162FF110122F8C
:1016D0009C0D00C0002C8BB9119709F086CE20EE2E
:1016E00031E0D2010E947319DC01CB01F4E0B69520
:1016F000A79597958795FA95D1F720E030E0A90155
:101700006AE9469E040C411D569E400D511D112450
:10171000450D511D840F951FA11DB11D893E43E04C
:101720009407A105B10508F434C0885E9340A1096F
:10173000B10942E0B695A795979587954A95D1F757
:1017400047E0849F080E211D949F200D311D112418
:10175000290F311D6091B50270E0860F971F820F2F
:10176000931F40916B0650916C0660916D067091CD
:101770006E06292F3327420F531F611D711D4093A1
:101780006B0650936C0660936D0670936E068093A3
:10179000B50278940E94B10EF301708B6787DF91D8
:1017A000CF911F91FF90EF90DF90CF90BF90AF90BF
:1017B0008F907F906F905F904F900895EF92FF927F
:1017C0000F931F93CF93DF93EC019091B6029F5F2D
:1017D000292F27702093B60290FF02C090E801C025
:1017E00090E021FD9064247009F0906220E1290FBF
:1017F000FE013C967E018FE0E80EF11C00E011E056
:101800006191662331F070E0C8010E945F196F5F3B
:1018100001C060E0DF0114976C93322F369F030EF6
:1018200030E0311D1124CF010797311103C0EC01C5
:10183000188203C03150EC013883662311F06150E7
:101840006C93EE15FF05E1F6DF91CF911F910F919B
:10185000FF90EF900895089580E090E00895FC01D6
:10186000538D448D252F30E0842F90E0821B930B05
:10187000541710F0CF96089501970895FC01918DAB
:10188000828D981761F0828DDF01A80FB11D5D96E2
:101890008C91928D9F5F9F73928F90E008958FEF50
:1018A0009FEF0895FC01918D828D981731F0828D04
:1018B000E80FF11D858D90E008958FEF9FEF08955B
:1018C000FC01918D228D892F90E0805C9F4F821BBF
:1018D00091098F739927089581E796E00E94600C23
:1018E00021E0892B09F420E0822F0895FC01848DEA
:1018F000DF01A80FB11DA35ABF4F2C91848D90E03A
:1019000001968F739927848FA689B7892C93A08914
:10191000B1898C9180648C93938D848D981306C0CB
:101920000288F389E02D80818F7D80830895EF9276
:10193000FF920F931F93CF93DF93EC0181E0888F89
:101940009B8D8C8D981305C0E889F989808185FD70
:1019500024C0F62E0B8D10E00F5F1F4F0F73112761
:10196000E02E8C8DE8120CC00FB607FCFACFE88988
:10197000F989808185FFF5CFCE010E94760CF1CFE9
:101980008B8DFE01E80FF11DE35AFF4FF0820B8FA4
:10199000EA89FB898081806207C0EE89FF896083C4
:1019A000E889F98980818064808381E090E0DF911B
:1019B000CF911F910F91FF90EF900895CF93DF93F8
:1019C000EC01888D8823C9F0EA89FB89808185FD37
:1019D00005C0A889B9898C9186FD0FC00FB607FC98
:1019E000F5CF808185FFF2CFA889B9898C9185FFD9
:1019F000EDCFCE010E94760CE7CFDF91CF91089515
:101A00001F920F920FB60F9211242F933F934F9373
:101A10005F936F937F938F939F93AF93BF93EF9356
:101A2000FF9381E796E00E94760CFF91EF91BF91C2
:101A3000AF919F918F917F916F915F914F913F9166
:101A40002F910F900FBE0F901F9018951F920F921D
:101A50000FB60F9211242F938F939F93EF93FF93C1
:101A6000E0918106F09182068081E0918706F091F5
:101A7000880682FD12C0908180918A068F5F8F73E5
:101A800020918B06821751F0E0918A06F0E0EF5822
:101A9000F94F958F80938A0601C08081FF91EF9165
:101AA0009F918F912F910F900FBE0F901F901895BF
:101AB000CF92DF92EF92FF920F931F93CF93DF931A
:101AC0006C017A018B01C0E0D0E0CE15DF0589F012
:101AD000D8016D918D01D601ED91FC910190F081BD
:101AE000E02DC6010995892B11F47E0102C02196D3
:101AF000ECCFC701DF91CF911F910F91FF90EF9035
:101B0000DF90CF900895009769F0FC0101900020CC
:101B1000E9F73197AF01481B590BBC0181E796E00B
:101B20000C94580D80E090E008950F931F93CF938D
:101B3000DF93FC0132968C0100541F4F6095DC014D
:101B40004C91EF013A912081522F241708F4542F21
:101B5000531708F4532F5B3588F0469F040E40E07E
:101B6000411DDC014C93369F030E30E0311D38835C
:101B7000269F020E20E0211D208311240396339618
:101B800080179107E1F6DF91CF911F910F91089592
:101B90004F925F926F927F928F929F92BF92CF925D
:101BA000DF92EF92FF920F931F93CF93DF93CDB706
:101BB000DEB72F970FB6F894DEBF0FBECDBF6C0116
:101BC00070E080E090E00E943D172B013C0120E096
:101BD00030E04AEA52E40E94221620E030E04FE76B
:101BE00053E40E94831720E030E04AE253E40E946D
:101BF000931669837A838B839C8320E030E04AE2EA
:101C000053E4C301B2010E9493166D837E838F83D8
:101C1000988720E030E04AEA52E4C301B2010E9412
:101C2000211620E030E04AE253E40E9493166987CF
:101C30007A878B879C87CE0101964C018E01035FCA
:101C40001F4F780193E0B92EB00ED4014D905D90F6
:101C50006D907D904D0120E030E0A901C301B201FB
:101C60000E944F181816FCF420E030E040E85FE3D3
:101C7000C301B2010E948E1687FF15C02BED3FE015
:101C800049E450E4C301B2010E9454180E94C118F3
:101C900020E030E04FE753E40E9454180E940C17F4
:101CA000F701608302C0D7011C92BFEFEB1AFB0A59
:101CB000BE10CBCF8F859D852E85291708F4292F3F
:101CC000281708F4282F30E085E0F82EEFEFF0E039
:101CD000D8014C91B901641B7109F69EC001F79EB1
:101CE000900D1124BF010E945F19842F860FD80127
:101CF0008D938D01BA12ECCF8F859E852D85F601CF
:101D0000208391838283C6012F960FB6F894DEBF9D
:101D10000FBECDBFDF91CF911F910F91FF90EF903C
:101D2000DF90CF90BF909F908F907F906F905F904B
:101D30004F9008958E3008F08E50877080648093A5
:101D40007C0080917A00806480937A0080917A0090
:101D500086FDFCCF809178002091790090E0922B55
:101D600008953FB7F89480911C0790911D07A091AA
:101D70001E07B0911F0726B5A89B05C02F3F19F07D
:101D80000196A11DB11D3FBFBA2FA92F982F8827FB
:101D9000820F911DA11DB11DBC01CD0142E0660F56
:101DA000771F881F991F4A95D1F708958F929F92A8
:101DB000AF92BF92CF92DF92EF92FF926B017C01C4
:101DC0000E94B10E4B015C01C114D104E104F10485
:101DD000F1F00E94B10EDC01CB0188199909AA0922
:101DE000BB09883E9340A105B10570F321E0C21AFA
:101DF000D108E108F10888EE880E83E0981EA11C46
:101E0000B11CC114D104E104F10419F7DDCFFF9036
:101E1000EF90DF90CF90BF90AF909F908F900895FC
:101E20002FB7F89460916B0670916C0680916D06E7
:101E300090916E062FBF08953F924F925F926F92DE
:101E40007F928F929F92AF92BF92CF92DF92EF924A
:101E5000FF920F931F93CF93DF9300D01F92CDB7C4
:101E6000DEB7F82E8091110790911207A091130709
:101E7000B0911407892B8A2B8B2BE9F00E94B10EAD
:101E800000912607109127072091280730912907F4
:101E9000DC01CB01801B910BA20BB30B009111074E
:101EA00010911207209113073091140780179107A2
:101EB000A207B307B8F20E94B10E60932607709391
:101EC00027078093280790932907E0911907F0913D
:101ED0001A07309759F040911507509116076091F5
:101EE0001707709118078F2D0995F82E00916F062E
:101EF000109170064F2C512C612C712C011511057D
:101F000009F461C0D8011C96EC901C9780910F07D2
:101F1000909110078436910510F41C961C92D801FC
:101F2000ED91FC91A280B38019821A821B82F1107C
:101F300014C0F80145855685628173819E012F5F2B
:101F40003F4FC801F5010995D8011C96EC921C97EA
:101F500014960D911C911597D1CFF8013996CE01A9
:101F600001966C0148019CE0890E911CDF011397DA
:101F70003C902191332001F12223F1F0822F90E057
:101F8000A0E0B0E09C01AD012F5F3F4F4F4F5F4F8E
:101F9000C301B2010E9443199B01AC01832D90E063
:101FA000A0E0B0E0BC01CD016F5F7F4F8F4F9F4F2E
:101FB0000E944319D6018C93BFEFCB1ADB0AE815B8
:101FC000F905A1F6B6CF80912407909125078C01E1
:101FD0000F5F1F4F109325070093240749979CF12B
:101FE0000E94100F4B015C0188EE93E0089FB00146
:101FF000099F700D189F700D1124072E000C880B7F
:10200000990BC0902007D0902107E0902207F09014
:102010002307A50194012C193D094E095F090E946F
:10202000F0153093100720930F0710922507109298
:1020300024070E94100F609320077093210780935C
:102040002207909323070F900F900F90DF91CF916D
:102050001F910F91FF90EF90DF90CF90BF90AF90C6
:102060009F908F907F906F905F904F903F900895DA
:102070001F920F920FB60F9211242F933F938F93BD
:102080009F93AF93BF9380916B0690916C06A09144
:102090006D06B0916E0630911B0723E0230F2D379C
:1020A00020F40196A11DB11D05C026E8230F02965C
:1020B000A11DB11D20931B0780936B0690936C06A6
:1020C000A0936D06B0936E0680911C0790911D073A
:1020D000A0911E07B0911F070196A11DB11D80930D
:1020E0001C0790931D07A0931E07B0931F07BF9175
:1020F000AF919F918F913F912F910F900FBE0F90B5
:102100001F901895CF93DF93CDB7DEB72F970FB6FB
:10211000F894DEBF0FBECDBF789484B5826084BDD5
:1021200084B5816084BD85B5826085BD85B58160DB
:1021300085BD80916E00816080936E001092810059
:102140008091810082608093810080918100816014
:1021500080938100809180008160809380008091D5
:10216000B10084608093B1008091B0008160809361
:10217000B00080917A00846080937A0080917A0028
:10218000826080937A0080917A00816080937A00E7
:1021900080917A00806880937A001092C10068EB89
:1021A0007BE080E090E00E94D60E8FEF9FEF90934F
:1021B000E5038093E4031092E8031092E203909306
:1021C000E7038093E60381E08093E9031092E30341
:1021D00080E090E0FC01E551FB4F108211821282F9
:1021E0000396803821E09207A9F780E090E021E093
:1021F00035E0FC01E954FD4F2083218332830396AF
:10220000803241E09407A9F70E943409EEEBF0E038
:102210002491EAEAF0E084918823C9F090E0880FE5
:10222000991FFC01E057FF4FA591B491FC01EA57BB
:10223000FF4F459154919FB7F8943C91822F809520
:1022400083238C93DA018C91282B2C939FBF809150
:10225000FD03811145C01092EF031092EE038FEF42
:102260008093F2038093F3038093F4038093F50348
:102270008093F6038093F70381E08093F803109234
:10228000FA031092F9031092F1031092F003809177
:102290006F0690917006892B31F48CEE93E0909349
:1022A000700680936F06E091EA03F091EB0330979C
:1022B00021F08CEE93E0958384838CEE93E09093F1
:1022C000EB038093EA031092FC031092FB038DE171
:1022D00091E09093ED038093EC0381E08093FD0304
:1022E000E091EC03F091ED030480F581E02D8CEE9C
:1022F00093E009958BE294E09093EF038093EE03D3
:1023000080E490E09093FA038093F903E091EC036A
:10231000F091ED030284F385E02D8CEE93E00995B6
:10232000009729F19C0140E050E060E472E48FE006
:1023300090E00E94C615722F632F00911107109133
:1023400012072091130730911407872F962FDA0177
:1023500080179107A207B30710F4D901C801809331
:10236000110790931207A0931307B093140781E00D
:102370008093F8038CE380930E07E0918106F0913F
:10238000820682E08083E0917D06F0917E061082D5
:10239000E0917F06F09180068FEC80831092890691
:1023A000E0918506F091860686E08083E0918306C1
:1023B000F0918406808180618083E0918306F091B2
:1023C0008406808188608083E0918306F091840692
:1023D000808180688083E0918306F091840680810B
:1023E0008F7D808344244A9413E0512E612C712CFC
:1023F0008BE291E0B4E0B80FBF87E091E803F0E032
:10240000EE0FFF1FE15DFE4F0190F081E02D409146
:10241000E2036BEE74E08091E4039091E50309958B
:102420008091E4039091E50301969093E5038093F6
:10243000E403E091E903F0E0EE0FFF1FE15DFE4FE2
:102440000190F081E02D4091E3036BEA75E080910B
:10245000E6039091E70309958091E6039091E703E5
:1024600001969093E7038093E603A0900701B09054
:1024700008010091E103EFEFAE16BE0679F5F0E436
:102480000F9F80011124C801880F991F080F191F81
:1024900080E090E0FC01E00FF11FE551FB4FDC0113
:1024A000A55DBB4F20812C93218111962C93119710
:1024B000228112962C930396803C910559F78091C6
:1024C000DF039091E003883522E092070CF09BC077
:1024D00001969093E0038093DF0395C02090DD0385
:1024E0003090DE03B101032C000C880B990B0E9485
:1024F0003D176B017C01B5010B2C000C880B990B6F
:102500000E943D179B01AC01C701B6010E949316C2
:1025100020E030E04FE753E40E9454180E940C176B
:10252000862E9090060130E4939E70011124C7011D
:10253000880F991F8E0D9F1DAC0143515B4F7A018F
:1025400050E4059F80011124C801880F991F080FCE
:10255000191F03511B4FC12CD12CF70132978081D9
:102560008987319680818A87D7018C918B87F80182
:10257000329780818C87319680818D87F8018081A8
:102580008E87282DAE01475F5F4FBE01645F7F4F8E
:10259000CE0101960E947D02F601E55DFB4F898127
:1025A00080838A8181838B818283F3E0CF0ED11C6B
:1025B00023E0E20EF11C0D5F1F4F30ECC316D10477
:1025C00061F680912A04811104C08091290481114F
:1025D0001AC0C10101968A159B052CF49093DE0365
:1025E0008093DD0310C01092DE031092DD034FEFE5
:1025F0005FEF50930801409307019092E10310921E
:10260000060110922A0480910E070E941C0F0E945E
:10261000100F6B017C0161E070E080E090E00E94AF
:10262000D60E80910E070E941C0F0E94100FDC0135
:10263000CB018C199D09AE09BF090897A105B10509
:1026400050F380912104811119C00E94100F6093F2
:10265000190470931A0480931B0490931C0488EC53
:1026600090E0A0E0B0E080931D0490931E04A0933E
:102670001F04B093200481E0809321040E94100F76
:102680000091190410911A0420911B0430911C042C
:10269000DC01CB01801B910BA20BB30B00911D043D
:1026A00010911E0420911F0430912004801791077F
:1026B000A207B30790F00E94100F60931904709363
:1026C0001A0480931B0490931C048091DC038F5F99
:1026D00060E60E9453199093DC03809129042091B5
:1026E000DF033091E00328353240ECF081111BC04C
:1026F0008091010190910201A5E0B8E08A9F9001CC
:102700008B9F300D9A9F300D1124275E394C3093EA
:10271000020120930101A0E2B3E00E94121680554D
:102720009B4F0E94D7018FE00E949A0E4AED53E022
:1027300063E174E00E94940180E10E949A0E48EDEA
:1027400053E061E174E00E94940181E10E949A0EDD
:102750008C0120910F04309110048217930711F41B
:10276000F12C4EC0821B930B97FF03C0919581956E
:102770009109409784F02FEF30E0D8010E9473193F
:10278000A30192010E94C6152093D7031093100451
:1027900000930F0433C087E0829FD001839FB00D68
:1027A0001124B7FD179663E0B595A7956A95E1F7F3
:1027B00017FF02C0095F1F4F53E0159507955A9503
:1027C000E1F7A00FB11FB0931004A0930F042FEFF7
:1027D00030E00E947319A30192010E94C6158091F6
:1027E000D70390E0821B910997FF03C091958195D3
:1027F000910902970CF4B4CF2093D703FF24F394EC
:102800008EE00E949A0E8C0120910D0430910E04EE
:102810008217930709F47AC1821B930B97FF03C0B9
:1028200091958195910940973CF121E430E0D801E0
:102830000E947319A30192010E94C615DA01C90111
:102840004496A11DB11D682F70E080E090E00E94C9
:102850003B179B01AC010E94541820E030E04AEA8B
:1028600052E40E9493160E940C1760930301109388
:102870000E0400930D044AC087E0829FD001839F1D
:10288000B00D1124B7FD179643E0B595A7954A956D
:10289000E1F717FF02C0095F1F4F33E01595079559
:1028A0003A95E1F7A00FB11FB0930E04A0930D0469
:1028B00021E430E00E947319A30192010E94C61521
:1028C000DA01C9014496A11DB11D682F70E080E0B6
:1028D00090E00E943B179B01AC010E94541820E03D
:1028E00030E04AEA52E40E9493160E940C1780914D
:1028F000030190E0861B910997FF03C09195819594
:10290000910902970CF402C1609303010E943409FB
:10291000FE0131967F0125E0C22E24E0D22E0BE28B
:1029200011E0B12CD8018D918D010E949A0EF70112
:10293000819391937F01D6012D913D916D01B1104D
:102940000DC0281B390B37FF03C031952195310984
:10295000BB24B394293131050CF4B12CBF85B013DD
:10296000E1CFBB2021F189819A8190930604809365
:1029700005048B819C8190930804809307048D81CA
:102980009E8190930A04809309048F819885909387
:102990000C0480930B0481E08093290410921804A6
:1029A000109217048EE591E00E94830D1AC0809169
:1029B00029048823B1F0809117049091180401969E
:1029C0009093180480931704853F914054F08AE651
:1029D00091E00E94830D1092290410921804109225
:1029E0001704E2EDF0E09491EEEBF0E08491EAEA76
:1029F000F0E02491222309F43AC0992339F193306D
:102A000091F038F49130A9F0923001F594B59F7DA2
:102A100012C0973091F09830A1F09430B9F49091B1
:102A200080009F7D03C0909180009F7790938000ED
:102A30000DC094B59F7794BD09C09091B0009F7769
:102A400003C09091B0009F7D9093B000E22FF0E022
:102A5000EE0FFF1FE656FF4FA591B4919C9189237D
:102A600031E020E009F430E0832F922F02C080E0B3
:102A700090E0209104010197E1F01092050110927D
:102A80001804109217042F3F31F481E0809316044C
:102A900085E791E00BC024325CF18091150481112F
:102AA00027C081E08093150484E891E00E94830DA3
:102AB0001FC02031ECF0809105018F5F80930501EC
:102AC0001092180410921704803194F0809115042C
:102AD000811107C081E080932A0480E590E00E9484
:102AE000D701109216048FEF809304011092150401
:102AF00080911604882339F08091040184321CF4FB
:102B00008F5F809304010E947B0977CCFF2009F43A
:102B1000FFCEFCCEE1E7F6E01382128288EE93E06E
:102B2000A0E0B0E084839583A683B78381E491E03D
:102B30009183808385EC90E09587848784EC90E096
:102B40009787868780EC90E0918B808B81EC90E07A
:102B5000938B828B82EC90E0958B848B86EC90E05B
:102B6000978B868B118E128E138E148EEEE0F7E00B
:102B70008FEF808312821182148613868FEF9FEF6E
:102B8000DC0187839087A187B2870895052E97FB84
:102B90001EF400940E94DD1557FD07D00E94F01529
:102BA00007FC03D04EF40C94DD15509540953095FC
:102BB00021953F4F4F4F5F4F0895909580957095A9
:102BC00061957F4F8F4F9F4F08950E941216A59FCA
:102BD000900DB49F900DA49F800D911D1124089518
:102BE000A1E21A2EAA1BBB1BFD010DC0AA1FBB1F11
:102BF000EE1FFF1FA217B307E407F50720F0A21B83
:102C0000B30BE40BF50B661F771F881F991F1A94EF
:102C100069F760957095809590959B01AC01BD0119
:102C2000CF010895A29FB001B39FC001A39F700D73
:102C3000811D1124911DB29F700D811D1124911DC4
:102C400008955058BB27AA270E9439160C941518CE
:102C50000E94071838F00E940E1820F039F49F3FA8
:102C600019F426F40C9404180EF4E095E7FB0C9488
:102C7000F017E92F0E94261858F3BA176207730756
:102C80008407950720F079F4A6F50C9448180EF403
:102C9000E0950B2EBA2FA02D0B01B90190010C016C
:102CA000CA01A0011124FF27591B99F0593F50F484
:102CB000503E68F11A16F040A22F232F342F4427DC
:102CC000585FF3CF469537952795A795F0405395D4
:102CD000C9F77EF41F16BA0B620B730B840BBAF0A4
:102CE0009150A1F0FF0FBB1F661F771F881FC2F70F
:102CF0000EC0BA0F621F731F841F48F48795779523
:102D00006795B795F7959E3F08F0B0CF9395880FDC
:102D100008F09927EE0F9795879508950E94CC1794
:102D200008F481E008950E94A7160C9415180E94DB
:102D30000E1858F00E94071840F029F45F3F29F060
:102D40000C94F01751110C9449180C9404180E941B
:102D5000261868F39923B1F3552391F3951B550B6E
:102D6000BB27AA2762177307840738F09F5F5F4F5E
:102D7000220F331F441FAA1FA9F335D00E2E3AF09D
:102D8000E0E832D091505040E695001CCAF72BD0B5
:102D9000FE2F29D0660F771F881FBB1F2617370706
:102DA0004807AB07B0E809F0BB0B802DBF01FF2738
:102DB00093585F4F3AF09E3F510578F00C94F0170E
:102DC0000C9449185F3FE4F3983ED4F386957795C9
:102DD0006795B795F7959F5FC9F7880F911D9695F1
:102DE000879597F90895E1E0660F771F881FBB1F4D
:102DF000621773078407BA0720F0621B730B840BFA
:102E0000BA0BEE1F88F7E09508950E940C1768949E
:102E1000B1110C94491808950E942E1888F09F57FC
:102E200098F0B92F9927B751B0F0E1F0660F771FEE
:102E3000881F991F1AF0BA95C9F714C0B13091F0E4
:102E40000E944818B1E008950C944818672F782F15
:102E50008827B85F39F0B93FCCF3869577956795A9
:102E6000B395D9F73EF490958095709561957F4F15
:102E70008F4F9F4F0895E89409C097FB3EF49095BB
:102E80008095709561957F4F8F4F9F4F9923A9F043
:102E9000F92F96E9BB279395F695879577956795D2
:102EA000B795F111F8CFFAF4BB0F11F460FF1BC016
:102EB0006F5F7F4F8F4F9F4F16C0882311F096E9A9
:102EC00011C0772321F09EE8872F762F05C0662357
:102ED00071F096E8862F70E060E02AF09A95660F10
:102EE000771F881FDAF7880F9695879597F90895C9
:102EF0000E94071820F019F00E940E1850F40C944C
:102F000004180C944918E92F0E94261888F35523B9
:102F1000B1F3E7FB6217730784079507A8F189F3FC
:102F2000E92FFF2788232AF03197660F771F881F24
:102F3000DAF7952F5527442332F091505040220F55
:102F4000331F441FD2F7BB27E91BF50B621B730B22
:102F5000840BB109B1F222F4620F731F841FB11DFB
:102F600031972AF0660F771F881FBB1FEFCF915054
:102F7000504062F041F0882332F0660F771F881FBF
:102F800091505040C1F793950C94F617869577951C
:102F900067959F5FD9F7F7CF990F0008550FAA0BD8
:102FA000E0E8FEEF16161706E807F907C0F012165C
:102FB0001306E407F50798F0621B730B840B950B5F
:102FC00039F40A2661F0232B242B252B21F40895B4
:102FD0000A2609F4A140A6958FEF811D811D089551
:102FE00097F99F6780E870E060E008959F3F31F0B7
:102FF000915020F4879577956795B795880F911D27
:103000009695879597F908959FEF80EC0895002491
:103010000A941616170618060906089500240A943D
:1030200012161306140605060895092E0394000CC3
:1030300011F4882352F0BB0F40F4BF2B11F460FF52
:1030400004C06F5F7F4F8F4F9F4F089557FD90587B
:10305000440F551F59F05F3F71F04795880F97FB5C
:10306000991F61F09F3F79F0879508951216130616
:103070001406551FF2CF4695F1DF08C01616170645
:103080001806991FF1CF869571056105089408957A
:10309000E894BB2766277727CB0197F908950E940C
:1030A000CC1708F48FEF08950E9467180C94151838
:1030B0000E94071838F00E940E1820F0952311F096
:1030C0000C94F0170C94041811240C9449180E94C5
:1030D000261870F3959FC1F3950F50E0551F629F1E
:1030E000F001729FBB27F00DB11D639FAA27F00D61
:1030F000B11DAA1F649F6627B00DA11D661F829F88
:103100002227B00DA11D621F739FB00DA11D621F6C
:10311000839FA00D611D221F749F3327A00D611D89
:10312000231F849F600D211D822F762F6A2F11246B
:103130009F5750409AF0F1F088234AF0EE0FFF1F9E
:10314000BB1F661F771F881F91505040A9F79E3FF5
:10315000510580F00C94F0170C9449185F3FE4F38C
:10316000983ED4F3869577956795B795F795E7954B
:103170009F5FC1F7FE2B880F911D9695879597F954
:1031800008959F930E94CB180F9007FCEE5F0C945C
:10319000F4180C9404180E942E18D8F3E894E0E078
:1031A000BB279F57F0F02AED3FE049EC06C0EE0F39
:1031B000BB0F661F771F881F28F0B23A620773079C
:1031C000840728F0B25A620B730B840BE3959A952F
:1031D00072F7803830F49A95BB0F661F771F881FEF
:1031E000D2F790480C94F817EF93E0FF07C0A2EADB
:1031F0002AED3FE049EC5FEB0E9439160E9415185A
:103200000F90039401FC9058E8E6F0E00C94081944
:103210009F938F937F936F93FF93EF939B01AC01E9
:103220000E945418EF91FF910E941C192F913F9119
:103230004F915F910C945418DF93CF931F930F938A
:10324000FF92EF92DF927B018C01689406C0DA2E28
:10325000EF010E946718FE01E894A5912591359130
:1032600045915591A6F3EF010E943916FE01970191
:10327000A801DA9469F7DF90EF90FF900F911F910A
:10328000CF91DF910895DB018F939F930E94E51505
:10329000BF91AF91A29F800D911DA39F900DB29FF2
:1032A000900D11240895991B79E004C0991F961779
:1032B00008F0961B881F7A95C9F78095089597FBAB
:1032C000072E16F4009407D077FD09D00E947A19D2
:1032D00007FC05D03EF4909581959F4F0895709519
:1032E00061957F4F08950E941216B7FF0895821BC3
:1032F000930B0895AA1BBB1B51E107C0AA1FBB1F5C
:10330000A617B70710F0A61BB70B881F991F5A9571
:10331000A9F780959095BC01CD010895EE0FFF1F90
:103320000590F491E02D099481E090E0F8940C94DC
:063330009919F894FFCF8B
:1033360001390514FFFF01FFFF000000008A098A1A
:10334600098A09B000AC00A900000000000D015078
:10335600018809B000AC0085098C09110E0F1055C3
:10336600079D08DF077C06AC059A046B0300000086
:1033760000970C580D2F0CDE0C600C3E0C520C7096
:1033860061747465726E206368616E676500747738
:1033960065616B20666F756E64006E6F20706C6180
:1033A60079696E6700627574746F6E2070726573EA
:1033B60073656400627574746F6E2068656C640072
:00000001FF
