:100000000C9495000C94BD000C94BD000C94BD00A4
:100010000C94BD000C94BD000C94BD000C94BD006C
:100020000C94BD000C94BD000C94A00A0C945006D6
:100030000C94BD000C94BD000C94BD000C94BD004C
:100040000C94BD000C94BD000C94BD000C94BD003C
:100050000C94BD000C94BD000C94BD000C94560A89
:100060000C94BD000C94BD000C94BD000C94BD001C
:100070000C94BD000C94BD000C94BD000C94BD000C
:100080000C94BD000C94BD000C94BD000C94BD00FC
:100090000C94BD000C94BD000C94BD000C94BD00EC
:1000A0000C94BD000C94BD000C94BD000706050423
:1000B0000100080A0B0C0D09080B000202020100E6
:1000C00009040000010202000005240010010524BB
:1000D000010101042402060524060001070581032D
:1000E00010004009040100020A0000000705020296
:1000F00040000007058302400000040309041201C8
:100100000002EF020140412341800001010203018E
:1001100041726475696E6F204C4C43004172647586
:10012000696E6F2059756E00560D11241FBECFEFFA
:10013000DAE0DEBFCDBF11E0A0E0B1E0E0E4FCE139
:1001400002C005900D92A834B107D9F722E0A8E4C7
:10015000B1E001C01D92AB3CB207E1F710E0C5E988
:10016000D0E004C02197FE010E94130EC439D107CC
:10017000C9F70E94120B0C941E0E0C940000FC0197
:100180008485958597FD0BC09FB7F89482E0809396
:10019000E9008091F2009FBF90E0019608959FB71B
:1001A000F89482E08093E9008091F2009FBF90E094
:1001B0000895089580E090E00895EF92FF920F93E4
:1001C0001F93CF93DF93EC01909149019F5F292FFB
:1001D00027702093490190FF02C090E801C090E091
:1001E00021FD9064247009F0906220E1290FFE0146
:1001F0003C967E018FE0E80EF11C00E011E0619179
:10020000662331F070E0C8010E94E40D6F5F01C009
:1002100060E0DF0114976C93322F369F030E30E0BD
:10022000311D1124CF010797311103C0EC01188251
:1002300003C03150EC013883662311F061506C9398
:10024000EE15FF05E1F6DF91CF911F910F91FF9021
:10025000EF90089580E991E008956E9A08950F93C4
:100260001F93CF93DF93CDB7DEB762970FB6F894A5
:10027000DEBF0FBECDBF8C01F901DC011C968C9155
:100280007A8369835C834B835E834D8390819D87F2
:1002900091819E8792819F87813029F4CE010196BA
:1002A0000E94DD0006C01C861B861A8619861886E9
:1002B0001F8283E0888B1A8A198AD801ED91FC91FC
:1002C0000484F585E02DBE016F5F7F4FC80109955D
:1002D00062960FB6F894DEBF0FBECDBFDF91CF910F
:1002E0001F910F9108950F931F93CF93DF93CDB775
:1002F000DEB762970FB6F894DEBF0FBECDBF8C019C
:10030000F901DC011C968C917A8369835C834B83B1
:100310005E834D8390819D8791819E8792819F8787
:10032000813029F4CE0101960E94DD0006C01C86B2
:100330001B861A86198618861F82188A1A8A198AB5
:10034000D801ED91FC910484F585E02DBE016F5F2D
:100350007F4FC801099562960FB6F894DEBF0FBEB5
:10036000CDBFDF91CF911F910F9108951F9380E032
:1003700090E015E550E068EC77E3252F219F020E11
:1003800020E0211D1124322F422F4095442321F0DB
:10039000469F040E40E0411D222329F0322F369F54
:1003A000030E30E0311D1124272F279F020E20E07D
:1003B000211D1124FC01E65BFE4F420F4083320FEA
:1003C000318322830396803C910509F0D6CF1F919B
:1003D000089580E090E00895FC0185859685089554
:1003E000CF93DF9300D000D000D0CDB7DEB7AB0104
:1003F0001C821D821E82DC01ED91FC910190F08136
:10040000E02D19821A821B829E012F5F3F4FBE0191
:100410006C5F7F4F099526960FB6F894DEBF0FBE2E
:10042000CDBFDF91CF9108950E94AA0890E0089572
:10043000CF93DF931F92CDB7DEB7FC0184859585FE
:1004400097FD05C02FEF3FEF358724870BC0CE0106
:1004500001960E948008019719F4898190E002C0FA
:100460008FEF9FEF0F90DF91CF9108950F931F9320
:10047000CF93DF931F92CDB7DEB78C01FC0184854B
:10048000958597FF0EC0CE0101960E9480080197C6
:1004900019F4298130E002C02FEF3FEFF8013587D2
:1004A0002487F801848595850F90DF91CF911F9166
:1004B0000F9108950E94190E4F925F926F927F9252
:1004C0008F92AF92BF92CF92DF92EF92FF921F93E3
:1004D000CF93DF933C01EB010E94CF08F301278506
:1004E0003089621B730B6A307105B0F3F894E881B0
:1004F000F9817EB170648EB18F7B8EB9CA849F8181
:100500002C2D291B922F2F83BF844A805B80FD8472
:10051000EC84DE84F394E394D3943E814885A984EB
:100520008B841181D20120E0522F622F618111272B
:1005300088946111690F08F46FEF91958894F0FC2D
:10054000160F17958894F1FC160F17958894F2FCF6
:10055000160F17958894F3FC160F17958894F4FCE2
:10056000160F17958894F5FC160F17958894F6FCCE
:10057000160F17958894F7FC160F17958894262F59
:10058000F110212F9C0D122F002C7EB900C000C04D
:1005900017FF8EB960812227889400C0002C8EB985
:1005A0006111630F00C0002C7EB900C000C016FFAF
:1005B0008EB908F46FEF3195889400C0002C8EB985
:1005C000E0FC260F00C0002C7EB900C000C015FF63
:1005D0008EB927958894E1FC260F00C0002C8EB9B7
:1005E0002795889400C0002C7EB900C000C014FF7D
:1005F0008EB9E2FC260F2795889400C0002C8EB996
:10060000E3FC260F00C0002C7EB900C000C013FF21
:100610008EB927958894E4FC260F00C0002C8EB973
:100620002795889400C0002C7EB900C000C012FF3E
:100630008EB9E5FC260F2795889400C0002C8EB952
:10064000E6FC260F00C0002C7EB900C000C011FFE0
:100650008EB927958894E7FC260F00C0002C8EB930
:100660002795889400C0002C7EB900C000C010FF00
:100670008EB9162FE110122F3A0D00C0002C8EB942
:1006800000C000C0002C7EB900C000C017FF8EB9AA
:1006900062812227889400C0002C8EB96111640FFA
:1006A00000C0002C7EB900C000C016FF8EB908F44F
:1006B0006FEFEB0DF11D00C0002C8EB9D0FC260FA2
:1006C00000C0002C7EB900C000C015FF8EB9279570
:1006D0008894D1FC260F00C0002C8EB927958894F1
:1006E00000C0002C7EB900C000C014FF8EB9D2FC3F
:1006F000260F2795889400C0002C8EB9D3FC260FB6
:1007000000C0002C7EB900C000C013FF8EB9279531
:100710008894D4FC260F00C0002C8EB927958894AD
:1007200000C0002C7EB900C000C012FF8EB9D5FCFD
:10073000260F2795889400C0002C8EB9D6FC260F72
:1007400000C0002C7EB900C000C011FF8EB92795F3
:100750008894D7FC260F00C0002C8EB9279588946A
:1007600000C0002C7EB900C000C010FF8EB9162F4B
:10077000D110122F419500C0002C8EB9480D00C039
:1007800000C07EB900C000C017FF8EB9618122276A
:10079000889400C0002C8EB96111690F00C0002C34
:1007A0007EB900C000C016FF8EB908F46FEF9195B6
:1007B000889400C0002C8EB9F0FC260F00C0002CDD
:1007C0007EB900C000C015FF8EB927958894F1FC52
:1007D000260F00C0002C8EB92795889400C0002CED
:1007E0007EB900C000C014FF8EB9F2FC260F279519
:1007F000889400C0002C8EB9F3FC260F00C0002C9A
:100800007EB900C000C013FF8EB927958894F4FC10
:10081000260F00C0002C8EB92795889400C0002CAC
:100820007EB900C000C012FF8EB9F5FC260F2795D7
:10083000889400C0002C8EB9F6FC260F00C0002C56
:100840007EB900C000C011FF8EB927958894F7FCCF
:10085000260F00C0002C8EB92795889400C0002C6C
:100860007EB900C000C010FF8EB9162FF110122FF4
:100870009C0D00C0002C8EB9119709F086CE20EE99
:1008800031E0D2010E94F80DDC01CB01F4E0B69515
:10089000A79597958795FA95D1F720E030E0A901C3
:1008A0006AE9469E040C411D569E400D511D1124BF
:1008B000450D511D840F951FA11DB11D893E43E0BB
:1008C0009407A105B10508F434C0885E9340A109DE
:1008D000B10942E0B695A795979587954A95D1F7C6
:1008E00047E0849F080E211D949F200D311D112487
:1008F000290F311D6091480170E0860F971F820F0C
:10090000931F40914B0250914C0260914D027091A7
:100910004E02292F3327420F531F611D711D409333
:100920004B0250934C0260934D0270934E028093A1
:10093000480178940E94CF08F301708B6787DF919C
:10094000CF911F91FF90EF90DF90CF90BF90AF902D
:100950008F907F906F905F904F90089540914502E7
:1009600050914602209143023091440242175307AE
:10097000B4F49091E8009570E1F39091E80092FD55
:1009800019C08093F1008091450290914602019632
:100990008F739927892B19F48EEF8093E80080914B
:1009A000450290914602019690934602809345023B
:1009B00081E0089580E00895CF92DF92EF92FF9258
:1009C0000F931F93CF93DF931F92CDB7DEB7182FEE
:1009D000062FE42E862F880F8E5F99830E94AE0427
:1009E00083E00E94AE04F12EC12E9981D92E8C2D68
:1009F0008F19801798F4F601E7FE02C0849101C0B8
:100A000080810E94AE04182F80E00E94AE048123F2
:100A1000FFEFCF1ADF0A8111EACF01C081E00F900A
:100A2000DF91CF911F910F91FF90EF90DF90CF90CA
:100A30000895DF92EF92FF920F931F93CF93DF936E
:100A4000D82E8A017B01E40EF51EEB01CE15DF05E1
:100A500071F0D7FE03C0FE01849101C088810E941D
:100A6000AE0421968111F2CF8FEF9FEF01C0C80134
:100A7000DF91CF911F910F91FF90EF90DF9008953C
:100A8000615030F02091F100FC0120830196F8CFF5
:100A9000289884E680934F020895CF92DF92EF92D8
:100AA000FF920F931F93CF93DF936C017A018B0119
:100AB000C0E0D0E0CE15DF0589F0D8016D918D0141
:100AC000D601ED91FC910190F081E02DC6010995D0
:100AD000892B11F47E0102C02196ECCFC701DF9172
:100AE000CF911F910F91FF90EF90DF90CF900895DD
:100AF000CF93DF931F92CDB7DEB76983DC01ED9111
:100B0000FC910280F381E02D41E050E0BE016F5F77
:100B10007F4F09950F90DF91CF91089583E08093E7
:100B2000E9008091F200882319F08AE38093E800BD
:100B300008950F931F93CF93DF931F92CDB7DEB726
:100B400082E0898342E450E068EB70E080E80E9434
:100B500019050E94BB08DC0112960D911C91139798
:100B60000115110569F0D801ED91FC910280F38126
:100B7000E02DBE016F5F7F4FC801099597FF07C049
:100B800089810F90DF91CF911F910F910895F80106
:100B900000851185E5CF8F929F92AF92BF92CF9241
:100BA000DF92EF92FF920F931F93CF93DF935C013D
:100BB0006B017A0180910B01882309F45BC080915D
:100BC0005002882309F456C08091490280FF05C075
:100BD0008091E00082608093E000E70110E00AEF7E
:100BE00083E0882E9AE3992E2097D9F10E94AA08D3
:100BF00081110AC0015009F43DC061E070E080E05D
:100C000090E00E94F408F0CF282F30E0C217D307FD
:100C10000CF48C2F4FB7F8948092E9009091E80083
:100C200095FF1DC0282F30E0C21BD30BF601982F73
:100C3000915020F081918093F100FACFC20ED31E23
:100C4000112319F09092E80009C08091E80085FD19
:100C500006C09092E80011E0209709F010E04FBF25
:100C6000C3CF1111C3CF5D9884E680934A021E144E
:100C70001F0444F081E090E0F5019383828380E0DB
:100C800090E001C0C701DF91CF911F910F91FF90BC
:100C9000EF90DF90CF90BF90AF909F908F9008958E
:100CA0001F920F920FB60F921124CF92DF92EF9204
:100CB000FF920F931F932F933F934F935F936F93E5
:100CC0007F938F939F93AF93BF93EF93FF93CF93B4
:100CD000DF93CDB7DEB76C97DEBFCDBF1092E900D2
:100CE0008091E80083FFEDC168E0CE0145960E9447
:100CF000400582EF8093E8008D8987FF05C09091C1
:100D0000E80090FFFCCF03C09EEF9093E800982F7F
:100D1000907609F0C6C09E892F89188D91110CC05C
:100D2000803829F4809148028093F10002C010922B
:100D3000F1001092F10048C1422F50E0512B913048
:100D400051F4811141C14130510509F03DC18091FB
:100D500048028D7F0BC0933061F4811135C1413061
:100D6000510509F031C180914802826080934802A8
:100D70002BC1953041F48091E80080FFFCCF2068C2
:100D80002093E30021C1963009F05FC0EB8CFC8C0E
:100D90001092E9001092460210924502123091F52D
:100DA00010924402109243020E94990599E0BE01FC
:100DB0006F5F7F4FDB01E92F1D92EA95E9F7998379
:100DC0001A8391E09E8390EA98879AEF9987209101
:100DD000450230914602275F3F4F3C832B838D8332
:100DE0001092E9001092460210924502F0924402DD
:100DF000E092430249E050E080E00E9419050E9421
:100E00009905E2C0F0924402E09243020E94BB08BE
:100E1000DC011296ED90FC901397E114F10409F4B3
:100E2000C0C0D701ED91FC910480F581E02DBE0199
:100E30006B5E7F4FC7010995009719F00CF0C4C095
:100E4000C7C0F701E084F184E8CF973009F4C0C04F
:100E5000983021F481E08093F100B6C0993009F018
:100E6000B3C0837009F0B4C0EFE2F1E081E021E0AB
:100E700036E39081992361F08093E9002093EB00A1
:100E800091919093EC003093ED008F5F873089F75C
:100E90008EE78093EA001092EA008F8980935002D7
:100EA00093C08B8D9C8D1092E90010924602109297
:100EB00045029093440280934302898D811156C06C
:100EC0008E899D89913A59F4813209F081C047E0B9
:100ED00050E064E071E080E00E94190575C0913235
:100EE00009F076C0833289F4888D90E0982F8827A6
:100EF0002F89822BA0E0B0E0809300019093010144
:100F0000A0930201B09303015FC0803269F4809125
:100F1000E80082FFFCCF67E084E091E00E9440059A
:100F20008BEF8093E80006C0823209F04DC08F89B4
:100F300080930B0180914702882319F0EEEFFAE0CD
:100F400002C0E0E0F8E08091040190910501A091D9
:100F50000601B0910701803B9440A105B10509F05D
:100F60007BC080910B0180FF93C076C00E94BB08BC
:100F7000DC0112960D911C9113970115110541F199
:100F8000D801ED91FC910190F081E02DBE016B5EE6
:100F90007F4FC8010995811117C0F801008511859F
:100FA000ECCF113009F44EC0133091F48F898823AF
:100FB00009F445C0823081F440E86BE08CE191E0B7
:100FC0000E94DC04882321F08EEF8093E80079C032
:100FD00081E28093EB0075C0813029F440E86BE03A
:100FE00080E191E0EDCF833099F70E94BB08DC01EE
:100FF0001296ED90FC9013978E010F5F1F4F6801C2
:10100000E114F10479F0D701ED91FC910680F781AC
:10101000E02DB801C7010995080F111DF701E08403
:10102000F184EECFD8011C92F60101900020E9F77F
:101030003197BF016C197D0940E0C601C1CF6AEF4D
:1010400070E002C06EEF70E06115710509F2FB01FE
:10105000449150E080E840CF0FB6F894A895809175
:101060006000886180936000109260000FBEA895B8
:10107000EE3F2AE0F20739F08091FE0A9091FF0AD4
:1010800091838083A1CF1092FF0A1092FE0A9CCF19
:10109000EE3F8AE0F80731F0808191819093FF0A5A
:1010A0008093FE0A87E797E7918380839BE088E13E
:1010B0000FB6F894A895809360000FBE90936000DF
:1010C00083CF6C960FB6F894DEBF0FBECDBFDF9115
:1010D000CF91FF91EF91BF91AF919F918F917F91B0
:1010E0006F915F914F913F912F911F910F91FF90C1
:1010F000EF90DF90CF900F900FBE0F901F9018953C
:10110000FC0180915002811103C08FEF9FEF089581
:101110009FB7F89482E08093E9002091F20030E0DC
:101120001216130614F421E030E02115310559F0B0
:10113000289884E680934F028091F100808380910B
:10114000F200882319F09FBFC90108958BE68093B0
:10115000E800F9CF2FB7F89483E08093E9009091ED
:10116000E800892F807295FF04C09091F20080E41E
:10117000891B2FBF08958091B90281110DC082E0B3
:101180008093B50284E08093B6021092B802109268
:10119000B70281E08093B90285EB92E008953FB7F2
:1011A000F8948091B1029091B202A091B302B091F3
:1011B000B40226B5A89B05C02F3F19F00196A11DCA
:1011C000B11D3FBFBA2FA92F982F8827820F911DDD
:1011D000A11DB11DBC01CD0142E0660F771F881F24
:1011E000991F4A95D1F708958F929F92AF92BF921F
:1011F000CF92DF92EF92FF926B017C010E94CF08A9
:101200004B015C01C114D104E104F104F1F00E942E
:10121000CF08DC01CB0188199909AA09BB09883ECE
:101220009340A105B10570F321E0C21AD108E1088D
:10123000F10888EE880E83E0981EA11CB11CC11431
:10124000D104E104F10419F7DDCFFF90EF90DF90B6
:10125000CF90BF90AF909F908F9008952FB7F89444
:1012600060914B0270914C0280914D0290914E0220
:101270002FBF08953F924F925F926F927F928F920D
:101280009F92AF92BF92CF92DF92EF92FF920F9315
:101290001F93CF93DF9300D01F92CDB7DEB7F82E08
:1012A0008091A6029091A702A091A802B091A902F4
:1012B000892B8A2B8B2BE9F00E94CF080091C70263
:1012C0001091C8022091C9023091CA02DC01CB0101
:1012D000801B910BA20BB30B0091A6021091A702E9
:1012E0002091A8023091A90280179107A207B307A5
:1012F000B8F20E94CF086093C7027093C80280932F
:10130000C9029093CA02E091AE02F091AF02309709
:1013100059F04091AA025091AB026091AC027091D9
:10132000AD028F2D0995F82E0091510210915202B5
:101330004F2C512C612C712C0115110509F461C041
:10134000D8011C96EC901C978091A4029091A50264
:101350008436910510F41C961C92D801ED91FC91F5
:10136000A280B38019821A821B82F11014C0F80186
:1013700045855685628173819E012F5F3F4FC8016D
:10138000F5010995D8011C96EC921C9714960D91C5
:101390001C911597D1CFF8013996CE0101966C01B9
:1013A00048019CE0890E911CDF0113973C9021912C
:1013B000332001F12223F1F0822F90E0A0E0B0E091
:1013C0009C01AD012F5F3F4F4F4F5F4FC301B201F3
:1013D0000E94D40D9B01AC01832D90E0A0E0B0E011
:1013E000BC01CD016F5F7F4F8F4F9F4F0E94D40D87
:1013F000D6018C93BFEFCB1ADB0AE815F905A1F6ED
:10140000B6CF8091C5029091C6028C010F5F1F4F2D
:101410001093C6020093C50249979CF10E942E09C1
:101420004B015C0188EE93E0089FB001099F700DAD
:10143000189F700D1124072E000C880B990BC0907B
:10144000C102D090C202E090C302F090C402A50194
:1014500094012C193D094E095F090E94A30D309398
:10146000A5022093A4021092C6021092C5020E9407
:101470002E096093C1027093C2028093C3029093BD
:10148000C4020F900F900F90DF91CF911F910F9199
:10149000FF90EF90DF90CF90BF90AF909F908F9094
:1014A0007F906F905F904F903F9008951F920F92A2
:1014B0000FB60F9211242F933F938F939F93AF9367
:1014C000BF9380914B0290914C02A0914D02B0913C
:1014D0004E023091B00223E0230F2D3720F4019605
:1014E000A11DB11D05C026E8230F0296A11DB11D47
:1014F0002093B00280934B0290934C02A0934D0234
:10150000B0934E028091B1029091B202A091B302C9
:10151000B091B4020196A11DB11D8093B1029093C8
:10152000B202A093B302B093B402BF91AF919F9166
:101530008F913F912F910F900FBE0F901F90189594
:101540001F920F920FB60F9211248F939F93809149
:10155000E1009091E100937F9093E10083FF0FC041
:101560001092E90091E09093EB001092EC0092E36E
:101570009093ED001092500298E09093F00082FF5B
:1015800020C093E09093E9009091F200992319F024
:101590009AE39093E80090914A02992339F0909150
:1015A0004A02915090934A02992389F190914F02F7
:1015B000992339F090914F02915090934F029923C3
:1015C00041F184FF10C08091E2008E7E81608093A3
:1015D000E2008091E1008F7E8093E10080914902DA
:1015E0008E7E806111C080FF16C08091E2008E7EE9
:1015F00080618093E2008091E1008E7E8093E10023
:10160000809149028E7E81608093490204C05D9A78
:10161000CDCF289AD6CF9F918F910F900FBE0F906C
:101620001F901895CF93DF9300D000D000D0CDB796
:10163000DEB7789484B5826084BD84B5816084BD52
:1016400085B5826085BD85B5816085BD80916E0060
:10165000816080936E001092810080918100826091
:1016600080938100809181008160809381008091CE
:1016700080008160809380008091910082608093DF
:101680009100809191008160809391008091900001
:101690008160809390008091C10084608093C1003C
:1016A0008091C10082608093C1008091C1008160FF
:1016B0008093C1008091C30081608093C3008091BA
:1016C000C00082608093C0008091C20081608093DE
:1016D000C20080917A00846080937A0080917A00C1
:1016E000826080937A0080917A00816080937A0092
:1016F00080917A00806880937A0010925002109254
:101700004802109249028091D70081608093D700EF
:1017100080EA8093D80089B5806189BD89B58260EF
:1017200089BD09B400FEFDCF61E070E080E090E08B
:101730000E94F4088091D8008F7C80618093D8004B
:101740008091E000807F8093E0008091E1008E7EB8
:101750008093E1008DE08093E200559A209AEEEFAD
:10176000FFE7859194918B3F9C4D19F481E0809324
:10177000470268EB7BE080E090E00E94F4088091F3
:101780001D02811145C010920F0210920E028FEFC0
:1017900080931202809313028093140280931502A7
:1017A000809316028093170281E0809318021092B2
:1017B0001A021092190210921102109210028091D6
:1017C000510290915202892B31F48CE092E0909377
:1017D000520280935102E0910A02F0910B0230977D
:1017E00021F08CE092E0958384838CE092E09093EA
:1017F0000B0280930A0210921C0210921B0280E2DC
:1018000091E090930D0280930C0281E080931D0281
:10181000E0910C02F0910D020480F581E02D8CE046
:1018200092E009958AE491E090930F0280930E0272
:1018300080E490E090931A0280931902E0910C02E8
:10184000F0910D020284F385E02D8CE092E0099581
:10185000009729F19C0140E050E060E472E48FE0E1
:1018600090E00E94790D722F632F0091A6021091D3
:10187000A7022091A8023091A902872F962FDA01A2
:1018800080179107A207B30710F4D901C80180930C
:10189000A6029093A702A093A802B093A9028FEF8B
:1018A0008093120280EB8093130280EF80931402E6
:1018B00080E68093A3028FEF9FEF90936002809366
:1018C0005F0258EEC52E53E0D52EE12CF12C882472
:1018D0008A9463E0962EA12CB12C70E0272E70E044
:1018E000372EE4E14E2E512C612C712C0AE010E0D1
:1018F0000E94B6018091A3020E943A090E942E091B
:1019000069837A838B839C8361E070E080E090E060
:101910000E94F4088091A3020E943A090E942E09B5
:10192000DC01CB0129813A814B815C81821B930BC5
:10193000A40BB50B0897A105B10530F380913A02CD
:10194000811115C00E942E096093320270933302F8
:1019500080933402909335024092360250923702BF
:10196000609238027092390231E030933A020E945C
:101970002E0920913202309133024091340250916D
:101980003502DC01CB01821B930BA40BB50B20911C
:101990003602309137024091380250913902821755
:1019A0009307A407B50778F00E942E0960933202CE
:1019B0007093330280933402909335028091310208
:1019C0008F5F8093310280912902811111C00E94A2
:1019D0002E09A70196010E94A30D309326022093A1
:1019E0002502109328020093270241E04093290228
:1019F0000E942E09A70196010E94A30D8091250245
:101A000090912602281B390B809127029091280281
:101A10002817390760F00E942E09A70196010E943D
:101A2000A30D309326022093250210924202ECEA85
:101A3000F0E0249130917B0023FBFF27F0F9FD8338
:101A40001E828D819E8145E0880F991F4A95E1F79E
:101A5000932F9F7D892B80937B0027702064209398
:101A60007C0080917A00806480937A0080917A0073
:101A700086FDFCCFA091780080917900B0E0B82B72
:101A80002BE530E00E94F80DA50194010E94790D2C
:101A9000DA01C9010596A11DB11D8093A30221148D
:101AA000310409F425CF0E94000022CFE3E5F2E0E3
:101AB0001382128288EE93E0A0E0B0E084839583E5
:101AC000A683B78389E391E0918380838FEF9FEFB3
:101AD00095878487E3EAF2E080831282118214867C
:101AE00013868FEF9FEFDC0187839087A187B287F2
:101AF0000895052E97FB1EF400940E94900D57FD4B
:101B000007D00E94A30D07FC03D04EF40C94900D57
:101B100050954095309521953F4F4F4F5F4F089519
:101B200090958095709561957F4F8F4F9F4F089549
:101B30000E94C50DA59F900DB49F900DA49F800D90
:101B4000911D11240895A1E21A2EAA1BBB1BFD01B1
:101B50000DC0AA1FBB1FEE1FFF1FA217B307E4078C
:101B6000F50720F0A21BB30BE40BF50B661F771FE4
:101B7000881F991F1A9469F76095709580959095C4
:101B80009B01AC01BD01CF010895A29FB001B39F9D
:101B9000C001A39F700D811D1124911DB29F700D76
:101BA000811D1124911D0895DB018F939F930E9445
:101BB000980DBF91AF91A29F800D911DA39F900D95
:101BC000B29F900D1124089597FB072E16F40094F0
:101BD00007D077FD09D00E94FF0D07FC05D03EF429
:101BE000909581959F4F0895709561957F4F0895C9
:101BF0000E94C50DB7FF0895821B930B0895AA1B81
:101C0000BB1B51E107C0AA1FBB1FA617B70710F0E7
:101C1000A61BB70B881F991F5A95A9F78095909519
:101C2000BC01CD010895EE0FFF1F0590F491E02D4A
:101C3000099481E090E0F8940C941E0EF894FFCF84
:101C4000FFFFFFFF00E100000000000000000000B7
:101C50005A025A025A02F001EC01E90100000000A8
:101C600073012F012D01F001EC012A015C0200C17A
:101C70008081000000000000007805CB0514028E72
:081C800005BF00180236020046
:00000001FF
